:020000040800F2
:1000000058720020812D00086D2900086F29000812
:100010009D2900089F290008A12900080000000070
:10002000000000000000000000000000A3290008FC
:10003000A529000800000000A729000821270008C2
:10004000D52D0008D92D0008DD2D0008E12D000870
:10005000E52D0008E92D0008ED2D0008F12D000820
:10006000F52D0008F92D0008FD2D0008012E0008CF
:10007000052E0008092E00080D2E0008112E00087C
:10008000152E0008192E00081D2E0008212E00082C
:10009000252E0008292E00082D2E000841150008E5
:1000A000352E0008392E00083D2E0008412E00088C
:1000B000452E0008492E00084D2E0008512E00083C
:1000C000552E0008592E00085D2E0008612E0008EC
:1000D000652E00080F090008190900082309000807
:1000E000752E0008792E00087D2E0008812E00084C
:1000F000852E0008892E00088D2E0008912E0008FC
:10010000952E0008992E00089D2E0008A12E0008AB
:10011000A52E0008A92E0008AD2E0008B12E00085B
:10012000B52E0008B92E0008BD2E0008C12E00080B
:10013000C52E0008C92E0008CD2E0008D12E0008BB
:10014000D52E0008D92E0008DD2E0008E12E00086B
:10015000E52E0008E92E0008ED2E00082D09000804
:10016000F52E0008F92E0008FD2E0008012F0008CA
:10017000052F0008092F00080D2F0008112F000877
:10018000152F0008192F000880B500F054F800F072
:1001900048F900F0D3FA01BD0100C9B2002902D12B
:1001A000DFF894071CE0C9B2012902D1DFF88C07FF
:1001B00016E0C9B2022902D1DFF8840710E0C9B203
:1001C000032901D100200BE0C9B2042901D100208C
:1001D00006E0C9B2052902D1DFF8680700E0002077
:1001E0007047F8B505000E0017002800C0B2FFF7F1
:1001F000D3FF0400002C0AD0E069002801D0E06998
:1002000080473A0092B23100200000F0CDFAF1BDF3
:1002100013B50400012201A92000C0B2FFF7E1FFDD
:1002200013BD0420DFF82017088070470420DFF892
:100230001C1708807047DFF81807DFF8FC16086005
:10024000DFF81007DFF8F0164860DFF80C07DFF87A
:10025000E81688604FF48060DFF8DC1688814FF480
:100260008060DFF8D416C8810020DFF8CC16088241
:100270000020DFF8C41648820020DFF8BC16C882D0
:100280000020DFF8B41608830020DFF8AC1648839E
:100290000020DFF8A41688820020DFF89C16C861D1
:1002A0000020DFF8941608620020DFF88C16486200
:1002B000DFF8A806DFF884160860DFF8A406DFF888
:1002C0007C164860DFF89C06DFF870168860012015
:1002D000DFF8681688814FF40060DFF86016C88187
:1002E0000020DFF8581608820020DFF850164882F8
:1002F0000020DFF84816C8820020DFF84016088387
:100300000020DFF8381648830020DFF83016888296
:100310000020DFF82816C8610020DFF820160862E8
:100320000020DFF818164862DFF83C06DFF81016E8
:100330000860DFF83806DFF808164860DFF8300696
:10034000DFF8FC1588604FF48060DFF8F4158881D1
:100350004FF48060DFF8E815C8810020DFF8E01571
:1003600008820020DFF8D81548820020DFF8D01579
:10037000C8820020DFF8C81508830020DFF8C01508
:1003800048830020DFF8B8158882DFF8E805DFF839
:10039000B015C861DFF8E005DFF8A4150862002099
:1003A000DFF89C154862DFF8D405DFF8981508607F
:1003B000DFF8CC05DFF88C154860DFF8C805DFF8FA
:1003C000841588604FF48060DFF8781588814FF4D9
:1003D0008060DFF87015C8810020DFF8681508829A
:1003E0000020DFF8601548820020DFF85815C88229
:1003F0000020DFF8501508830020DFF848154883F7
:100400000020DFF8401588820020DFF83815C86129
:100410000020DFF8301508620020DFF82815486258
:10042000704780B586B00121012000F04DFB01210D
:10043000102000F076FB07220921DFF84C0500F0C0
:10044000E5FB07220A21DFF8400500F0DFFB002072
:100450008DF8060001208DF8070002208DF80400B9
:100460004FF40070009002208DF805006946DFF817
:10047000180500F077FB02208DF804004FF480602F
:1004800000906946DFF8000500F06CFB5FF4E13096
:1004900002900020ADF80C000020ADF80E00002006
:1004A000ADF810000020ADF814000C20ADF81200DB
:1004B00002A9DFF89C0400F0D9FB012240F225518B
:1004C000DFF88C0400F05AFC0121DFF8840400F00E
:1004D0003FFC4021DFF8780400F085FC0121012079
:1004E00000F0F2FA01215FF4003000F00BFB07226C
:1004F0000321DFF8940400F089FB00208DF806004A
:1005000001208DF8070002208DF8040002208DF8EC
:1005100004000820009002208DF805006946DFF8ED
:10052000680400F01FFB4FF4165002900020ADF855
:100530000C000020ADF80E000020ADF810000020E7
:10054000ADF814000420ADF8120002A9DFF80C0485
:1005500000F08CFB012240F22551DFF8000400F08E
:100560000DFC0121DFF8F40300F0F2FB4021DFF87D
:10057000EC0300F038FC0121022000F0A5FA012074
:100580008DF8040000208DF8060000208DF807008B
:1005900003208DF80500042000906946DFF8EC0385
:1005A00000F0E0FA0121022000F08EFA01215FF450
:1005B000802000F0A7FA07220A21DFF8D00300F01C
:1005C00025FB07220B21DFF8C40300F01FFB0020EE
:1005D0008DF8060001208DF8070002208DF8040038
:1005E0004FF48060009002208DF805006946DFF826
:1005F0009C0300F0B7FA02208DF804004FF400606D
:1006000000906946DFF8840300F0ACFA4FF416500E
:1006100002900020ADF80C000020ADF80E00002084
:10062000ADF810000020ADF814000C20ADF8120059
:1006300002A9DFF8340300F019FB012240F2255132
:10064000C94800F09BFB0121C74800F081FB402115
:10065000C54800F0C8FB0121442000F035FA012113
:10066000202000F05EFA08220E21C94800F0CEFAE0
:1006700008220721C74800F0C9FA08220821C44807
:1006800000F0C4FA08220F21C14800F0BFFA002090
:100690008DF8060001208DF8070002208DF8040077
:1006A0004FF48040009002208DF805006946B8485C
:1006B00000F058FA02208DF804008020009069466E
:1006C000B44800F04FFA02208DF804004FF4807017
:1006D00000906946AE4800F045FA02208DF804000B
:1006E0004FF4004000906946A94800F03BFA5FF4DF
:1006F000E13002900020ADF80C000020ADF80E00B3
:100700000020ADF810004FF44070ADF814000C203C
:10071000ADF8120002A9994800F0A8FA012240F2AF
:100720002551964800F02AFB0121944800F010FB67
:100730004021924800F057FB07B000BD80B54FF450
:10074000E06000F08BFB25208DF8000000208DF884
:10075000020001208DF80300684600F084FB26208B
:100760008DF8000001208DF8020001208DF80300B3
:10077000684600F078FB27208DF8000002208DF8F5
:10078000020001208DF80300684600F06CFB472052
:100790008DF8000005208DF8020001208DF803007F
:1007A000684600F060FB01BDF8B504000D001600BE
:1007B00000273800310080B289B2884224D201205B
:1007C00080F31088A08A002181F310880100A2899B
:1007D00089B29142F3D2BFB2E95D6268238AD154F3
:1007E000012181F31088218A491C2182218AA28952
:1007F000914201D300202082A08A401CA0820020C8
:1008000080F310887F1CD4E7012240F22771206812
:1008100000F0B4FAF1BD10B5040040F22551206893
:1008200000F0E7FA00281DD0206800F0A3FAA168C4
:10083000E28A8854E08A401CE082E08AE1898842AA
:1008400001D30020E082608BE189884202D2608B74
:10085000401C6083608B012804D1606A002801D0AD
:10086000606A804740F22771206800F0C2FA0028D1
:1008700023D0A08A00280CD1002240F227712068E2
:1008800000F07CFA012240F22661206800F076FA3E
:100890003CE06068618A415C89B2206800F066FAD9
:1008A000608A401C6082608AA189884201D300204E
:1008B0006082A08A401EA08228E040F22661206863
:1008C00000F097FA002821D0A08A00280BD100223E
:1008D00040F22661206800F051FA206A002815D005
:1008E000206A804712E06068618A415C89B22068B2
:1008F00000F03CFA608A401C6082608AA1898842CC
:1009000001D300206082A08A401EA08210BD80B565
:100910000948FFF780FF01BD80B50848FFF77BFF5E
:1009200001BD80B50648FFF776FF01BD80B50548DB
:10093000FFF771FF01BD000084310020AC310020C1
:10094000D4310020FC310020180402401A04024077
:100950000010014064180020641C00200044004086
:10096000563200206410002000480040642000201F
:1009700064240020230200082D0200080014014016
:1009800064280020642C0020000002400004024083
:10099000001802400008024038B504000D00200095
:1009A0000100C9B20020FFF733FC200032BD000077
:1009B0002DE9F04F00220023002402250021022609
:1009C000DFF87C713F6817F00C07BC46BCF1000FE4
:1009D00006D0BCF1040F07D0BCF1080F08D03AE0F4
:1009E000DFF86421026039E0DFF86021026035E061
:1009F000DFF850211268C2F380521100DFF8442161
:100A0000126812F03F02160000290CD0DFF83C21DA
:100A1000B2FBF6FCDFF82C211268C2F3881202FB4D
:100A20000CFC64460BE0DFF82021B2FBF6FCDFF89B
:100A300014211268C2F3881202FB0CFC6446DFF832
:100A400004211268C2F30142521C52001500B4FB8B
:100A5000F5F2026002E0DFF8F0200260DFF8E0204B
:100A6000126812F0F0021209DFF8E4C01CF802C0AC
:100A7000D0F800E03EFA0CFEC0F804E0DFF8C0E079
:100A8000DEF800E01EF4E05E5FEA9E2EDFF8C08034
:100A900018F80E80D0F8049039FA08F9C0F80890D8
:100AA000DFF89C90D9F8009019F460495FEA593951
:100AB000DFF89CA01AF809A0D0F804B03BFA0AFBB2
:100AC000C0F80CB0BDE8F08FC9B2002905D0214AAA
:100AD000126802431F4B1A6004E01E4A12688243E8
:100AE0001C4B1A607047C9B2002905D01A4A126817
:100AF0000243194B1A6004E0174A12688243164BEE
:100B00001A607047C9B2002905D0144A126802431E
:100B1000124B1A6004E0114A126882430F4B1A60AC
:100B20007047C9B2002905D00D4A126802430C4B28
:100B30001A6004E00A4A12688243094B1A6070473F
:100B400008380240043802400024F40040787D0157
:100B5000000000203038024038380240403802405F
:100B600044380240F0B40022002300240025102D58
:100B70004AD20122AA4013000A681A4014009C427B
:100B800040D1066803272A00D2B252009740BE43E4
:100B9000066006680F792A00D2B2520097403E43A1
:100BA00006600A79012A02D00A79022A1AD18668D7
:100BB00003272A00D2B252009740BE43866086685F
:100BC0004F792A00D2B2520097403E438660426875
:100BD0000126AE40B243426042688E79AE40B6B262
:100BE00032434260C66803272A00D2B252009740BF
:100BF000BE43C660C668CF792A00D2B25200974081
:100C00003E43C6606D1CB2E7F0BC7047F0B50024EF
:100C10000025D2B211F00703DBB29E0012FA06F6ED
:100C200089B20B00DB1000EB830789B20B00DB10ED
:100C300000EB8303D3F820C05FF00F0E11F0070321
:100C4000DBB29B001EFA03FE3CEA0E0CC7F820C084
:100C500089B20B00DB1000EB83031B6A334389B2BC
:100C60000F00FF1000EB87073B62F0BD2DE9F04F4E
:100C700085B004000D00002600275FF000085FF03B
:100C80000009A8890028218A31F44051E8880143ED
:100C9000009100982082B4F80CA02C4810EA0A0AAF
:100CA000A988288901436889014351EA0A0AA4F8FE
:100CB0000CA0B4F814B03BF4407BA88950EA0B0BAD
:100CC000A4F814B001A8FFF773FE1E48844202D0B6
:100CD0001D48844201D1049900E00399A0890004D1
:100CE00007D5192000FB01F02A685200B0FBF2F290
:100CF00006E0192000FB01F02A689200B0FBF2F236
:100D00006420B2FBF0F6360133001B09642000FBBF
:100D10001323A089000408D5D80032306427B0FB23
:100D2000F7F010F00700064307E01801323064279F
:100D3000B0FBF7F010F00F000643268105B0BDE8C8
:100D4000F08F00000010014000140140F3E9FFFFA4
:100D5000C9B2002904D0828952F40052828104E091
:100D600083894DF6FF72134083817047CA05D20D07
:100D7000828070478088C005C00D70472DE9F04122
:100D80000023002500275FF0000E89B240F66A14A8
:100D9000A14280460C00E4B26409E4B289B211F0C9
:100DA0001F065FF0010C1CFA06FC012C02D118F1A1
:100DB0000C0806E0022C02D118F1100801E018F12D
:100DC0001408D2B2002A06D0D8F800305CEA030337
:100DD000C8F8003005E0D8F8003033EA0C03C8F852
:100DE0000030BDE8F08189B28A0589B2CA43028029
:100DF0007047F0B40400002700200022002689B2CA
:100E000040F66A1399420D00EDB26D09EDB289B258
:100E100011F01F035FF0010C1CFA03F3012D02D146
:100E2000A089034006E0022D02D1208A034001E0A0
:100E3000A08A03400A0092B2120A92B2012010FA6C
:100E400002F220880240002B03D0002A01D00120AA
:100E500000E00020C0B2F0BC704700001C49014314
:100E60001C4A11607047F0B4002200230F24C1789F
:100E7000002920D01749096811F4E061D1F5E0613B
:100E8000090AD1F104052B00E4B20C4145789D40DC
:100E90008678264035432D012A000F4D0678AA5545
:100EA0000125067816F01F06B5400C4E07787F1115
:100EB00046F8275009E00121057815F01F05A940E3
:100EC000074D0678761145F82610F0BC70470000F3
:100ED0000000FA050CED00E000E400E000E100E0B5
:100EE00080E100E080B500F010F800F0DAF80020B2
:100EF00000F00FF9002000F090F900F0A4F94FF491
:100F00008050DFF80416088001BDE0B50121012002
:100F1000FFF7E9FD01215820FFF7D6FD0C22002143
:100F2000DFF8E805FFF772FE0C220121DFF8DC058F
:100F3000FFF76CFE0C220421DFF8D005FFF766FEF8
:100F40000C220521DFF8C405FFF760FE0C22082102
:100F5000DFF8B805FFF75AFE0C220921DFF8AC05CF
:100F6000FFF754FE0C220A21DFF8A005FFF74EFE22
:100F70000C220E21DFF89405FFF748FE0C220F210A
:100F8000DFF88805FFF742FE4CF233700090022034
:100F90008DF8040003208DF8050000208DF8060070
:100FA00000208DF807006946DFF86005FFF7DAFDDD
:100FB0000C220421DFF85805FFF728FE0C2205213A
:100FC000DFF84C05FFF722FE0C220721DFF8400571
:100FD000FFF71CFE0C220821DFF83405FFF716FE90
:100FE0000C220921DFF82805FFF710FE0C220A2148
:100FF000DFF81C05FFF70AFE0C220B21DFF81005B5
:10100000FFF704FE0C220C21DFF80405FFF7FEFDBC
:101010000C220D21DFF8F804FFF7F8FD0C220E2159
:10102000DFF8EC04FFF7F2FD0C220F21DFF8E004FB
:10103000FFF7ECFD4FF6B07000906946DFF8D00482
:10104000FFF790FD0C220C21DFF8C804FFF7DEFD4E
:101050004FF4805000906946DFF8B804FFF782FD36
:1010600001214FF4C070FFF72FFD01208DF804001F
:1010700003208DF8050000208DF8060000208DF873
:1010800007004FF4BC4000906946DFF88C04FFF77E
:1010900069FD102000906946DFF88004FFF762FDCB
:1010A00007BD80B596B00320009000200190062077
:1010B0000290012003900020049000200590002061
:1010C000069006200790002008900020099010202C
:1010D0000A9000200B9000200C9000200D90002022
:1010E0000E9000200F904FF480501090002011902F
:1010F00000201290002013906846149068461590C6
:1011000007A800F029FA0121062000F096FA17B08E
:1011100000BDDFF80C140870C0B2012809D068D3F4
:10112000032826D015D3052843D032D3062850D023
:101130005FE04FF40061DFF8EC2311804FF4806131
:10114000DFF8E02311804FF40071DFF8BC23118039
:1011500062E04FF40061DFF8CC2311804FF480612E
:10116000DFF8A42311804FF40071DFF8B823118059
:1011700052E04FF40061DFF8AC2311804FF480613E
:10118000DFF8842311804FF40071DFF87C23118095
:1011900042E04FF40061DFF8702311804FF480616A
:1011A000DFF8802311804FF40071DFF8782311807D
:1011B00032E04FF40061DFF8502311804FF480617A
:1011C000DFF8602311804FF40071DFF83C231180B9
:1011D00022E04FF40061DFF8302311804FF480618A
:1011E000DFF8242311804FF40071DFF838231180D9
:1011F00012E00021DFF8282311704FF40061DFF8BE
:10120000242311804FF48061DFF8182311804FF4FC
:101210000071DFF8102311807047C0B2002809D197
:101220000021DFF8FC2251704FF48041DFF8F422F6
:10123000118007E00121DFF8E82251704FF480416E
:10124000B14A118070471020DFF8DC1208801020AE
:10125000DFF8D81208801020DFF8D01208801020A4
:10126000B24908801020B14908801020AE4908809A
:1012700070474FF48050AB4908804FF48050A94923
:1012800008804FF48050A74908804FF480509E4951
:1012900008807047A648B0F90000A1494880A448DA
:1012A000B0F900009E498880A148B0F900009C492F
:1012B000C8809F48B0F90000994908819C48B0F95E
:1012C0000000974948819A48B0F900009449888104
:1012D0009748B0F900009249C8819548B0F90000DC
:1012E0008F4908827047F0B58FB0040001210820B3
:1012F000FFF708FC01218020FFF7E6FB4FF4805048
:10130000019002208DF8080003208DF809000020CC
:101310008DF80A0001208DF80B0001A97E48FFF727
:1013200021FC02220C217C48FFF770FC81480568F3
:101330006D0840F6B830844207D263266420B5FBBE
:10134000F0F0B0FBF4F0471E03E00026B5FBF4F02C
:10135000471EBFB20897ADF81C600020ADF824000E
:101360000020ADF81E0007A9734800F085F9602041
:10137000ADF828000120ADF82A0004200C900220CE
:10138000ADF834000AA96C4800F0C8F908216A4891
:1013900000F016FA0121684800F0A4F9012166481E
:1013A00000F0AEF901214FF48070FFF78DFB0121B1
:1013B0004FF48040FFF7B5FB00208DF818000020A7
:1013C0008DF81B004020059005A95448FFF7CAFB83
:1013D0000621082000F0FEF94020039000208DF83F
:1013E00010000C208DF8110001208DF8120003A8C8
:1013F00000F01EFA17208DF8000000208DF8010083
:1014000000208DF8020001208DF803006846FFF7E8
:101410002AFD0FB0F0BD10B5040000F014F8FFF77E
:1014200012FFFFF726FF00204449088000204349AF
:101430004880002041498880002040498871200070
:10144000FFF751FF10BDF8B500213B4800F058F9F7
:1014500001218020FFF738FB01208DF804000320D4
:101460008DF8050000208DF8060000208DF807009B
:101470004FF48050009069462748FFF773FB4020E7
:10148000029000208DF80C000C208DF80D0000203B
:101490008DF80E0002A800F0CBF94FF480501A49E5
:1014A000088005B000BD80B5FFF7F4FE0020C0B293
:1014B000082827DA1A49C0B201EB400149881F4ABF
:1014C0001E4B5B8802EB430211811C494988491C71
:1014D0001A4A518019494988B1F5006F02DB002191
:1014E000164A518015498988B1F5006F05DA13490C
:1014F0008988491C114A918002E001210F4A9171AB
:10150000401CD4E701BD0000181C0240000C024042
:101510000010024000180240001C0240002002405F
:10152000243200201A1C02401A20024018200240D7
:101530000000406C10000020000C00405C00002007
:1015400080B5402000F0B7F9002804D0FFF7ABFFCA
:10155000402000F0BBF901BD426881680A43C168C0
:101560000A4301690A4341690A4381690A43C1691F
:101570000A43016A0A43416A0A43816A0A43C16A0B
:101580000A43016B0A435FF02041036841F82320BE
:10159000816808290BD15FF02041026851F82210C0
:1015A00051F040015FF02042036842F82310416B84
:1015B0000A68416B496852EA0112416B896852EA34
:1015C0000122416BC96852EA0142416B096952EA42
:1015D0000152416B496952EA0162416B89690A43D0
:1015E0005FF02041036801EB83014A60C16AB1F5F5
:1015F000804F1AD1816B0A68816B496852EA0112E7
:10160000816B896852EA0122816B096952EA0152B1
:10161000816B496952EA0162816B89690A43DFF88B
:101620005010036841F8232006E07FF07041DFF896
:101630004020036842F823107047C9B200290AD03D
:101640005FF0204252F8202052F001025FF0204368
:1016500043F820200AE05FF0204252F82030DFF803
:10166000142013405FF0204242F820307047000001
:10167000040100A0FEFF0F0010B400220388494CB3
:10168000A0420ED04D4A90420BD0B0F1804F08D00E
:10169000454A904205D0454A904202D0444A904281
:1016A00004D14FF68F7213404A881343414A904247
:1016B00007D0414A904204D04FF6FF4213400A89B6
:1016C000134303804A68C2620A880285354A904201
:1016D00002D03A4A904201D18A7A0286012282825D
:1016E00010BC7047C9B2002904D0028852F08002B1
:1016F000028004E003884FF67F7213400380704736
:10170000C9B2002904D0028852F00102028004E02C
:1017100003884FF6FE72134003807047F0B4002632
:1017200000275FF0000C038C4FF6FF621340038428
:10173000038C8488858B4FF68F7215404FF6FC72B0
:1017400015400A8815434FF6FF5213408A8953EA21
:1017500002234A8853EA0223124A904202D0174ACF
:10176000904217D14FF2FF721340CA8953EA022305
:101770004FF6FF3213408A8853EA02234EF6FF7277
:1017800014404DF6FF7214400A8A54EA02144A8A41
:1017900054EA0214848085838A68C2630384F0BC9F
:1017A00070470000000001400004004000080040B5
:1017B000000C0040001000400014004000040140F4
:1017C00010B40023848B4FF6F77214400C438483CB
:1017D00010BC704770B400220F2411F00303DBB279
:1017E0009B0014FA03F3114CC9B20D00AD1054F86C
:1017F00025409C430D4DC9B20E00B61045F8264059
:101800000A4CC9B20D00AD1054F82540C0B211F019
:101810000305EDB2AD0010FA05F52C43034DC9B236
:101820000E00B61045F8264070BC704708380140DD
:101830000022284B8179002936D026490A680168A0
:101840008A4324490A6024490A6801688A43224974
:101850000A6001795A18136801680B4313601F4925
:101860000B6801688B431D490B601D490B680168BB
:101870008B431B490B60417910290CD117490B6828
:1018800001680B4315490B6015490B6801680B4350
:1018900013490B600EE00F494379C9180A00136819
:1018A00001680B43136005E001795A181368016859
:1018B0008B4313607047010000220A480068084209
:1018C00001D0012000E00020C0B270470549086047
:1018D00070470000003C0140043C0140083C0140CE
:1018E0000C3C0140143C01402DE9F84F92B0814678
:1018F0001C98DFF8F8818DF82F00154600201E4651
:10190000029108900FF27C4A4FF0FF3B0CE0252833
:101910000FD015F8011B0298C8470028029000F06C
:10192000D2800898401C089028780028EFD10898A9
:10193000DEE00020002105900691079001E041F0D3
:10194000010115F8010F2028F9D023280CD02B28ED
:1019500004D02D2805D0302809D0B6E041F002018E
:10196000EFE741F00401ECE741F00801E9E741F05D
:101970001001E6E700200A9009E00A98404505DAE0
:1019800000EB800302EB4302303A0A926D1C2A7886
:10199000A2F130000A28F0D32A782E2A18BFCDF8F9
:1019A00024B023D115F8010F2A2807D13068306000
:1019B0006D1C50F8042B3060099217E02D280CBFE5
:1019C00015F8010B0020002209920AE040B9099A9B
:1019D000424505DA02EB820403EB4403303B0993F2
:1019E0006D1C2B78A3F130020A2AEFD3ADF82C102E
:1019F0005046297800F0D8F908B115F8010B8DF898
:101A00002E009DF82E00682804BF2978682903D18C
:101A100062208DF82E006D1C0CA80490324615F83B
:101A2000013B01A9484600F091F800284BD10A98E3
:101A30000599079A069C401A801A041B9DF82C00F1
:101A400041070ED42021002C8DF8001009DD274617
:101A500001236A4601A9484600F07DF998BB7F1E24
:101A6000F6D1059B0CAA01A9484600F074F950BBB9
:101A700030208DF80000079F002F08DD01236A4603
:101A800001A9484600F067F9E8B97F1EF6D1069B28
:101A9000039A01A9484600F05EF9A0B99DF82C0010
:101AA00041077FF541AF2021002C8DF800107FF712
:101AB0003BAF01236A4601A9484600F04CF910B932
:101AC000641EF6D130E7584612E02A287FF452AF60
:101AD0003268326052F8040B326000280A9003D555
:101AE00040420A9041F004016D1C55E7CBCCCC0C70
:101AF00013B0BDE8F08F62280ED0682819D1002AF3
:101B00000A680A60106803D0121D0A6000B217E06C
:101B1000121D0A6080B217E0002A0A680A60106885
:101B200003D0121D0A6040B20AE0121D0A60C0B262
:101B30000AE0002A0A680A60106803D0121D0A60D1
:101B4000C1177047121D0A600021704770B51C460E
:101B50000D46252CEE68114600F08480582C37D0B5
:101B6000632C0ED0642C18BF692C14D06F2C2FD08E
:101B7000702C49D0732C53D0752C18BF782C27D0DB
:101B800076E02869421C2A610A680A6052F8043B20
:101B90000A60335476E095F82A000122FFF7ABFF84
:101BA0000028286004D52869411C29612D210DE0F9
:101BB000288D810704D52869411C29612B2105E066
:101BC000C0071CD52869411C29612021315416E029
:101BD00095F82A000022FFF78EFF286095F828105C
:101BE00008070CD5286850B144F02001782906D1A7
:101BF000286930213154401C411C2961345421464C
:101C000028693044A86007E00868086050F8042B91
:101C100008602A60AE607821284600F035F831E08F
:101C20000868086050F8044B0860AC603CB90FF2DB
:101C30005C1000F0C5F84FF0FF34201A70BD2E6A1A
:101C4000002E04D5204600F0DDF8044608E03246B8
:101C50000021204600F0F2F8002814BF041B34468F
:101C60006C610FE02869411C29612521315409E08C
:101C70002969481C286125227254210002D0411C88
:101C800029613454002070BDF0B402466F29D46835
:101C900008BF082605D041F02000782814BF0A2686
:101CA000102618251768642918BF6929384602D1FB
:101CB000002F48BF4042F0B9136AE3B9082E39D16A
:101CC00092F82800010735D530201725E07531E05E
:101CD00000280ED592F8280000F01400102808D132
:101CE000536A10691B1A90691B1A591A0129A8BF57
:101CF0009161F0BC7047B0FBF6F706FB170030307F
:101D00006D1EC0B23A28A4BFA1F151031818605546
:101D1000380003D093686719BB42ECD3082E09D171
:101D200092F82800010705D5615D302902D06D1EAB
:101D30003020605560199060C5F11801106A51613A
:101D40008142C5DA411A91614FF6EF70118D014061
:101D50001185F0BC7047F8B505460E4617461C467F
:101D6000002074B117F8011B7068A847706030B18B
:101D7000F069401CF0610020641EF3D1F2BD4FF009
:101D8000FF30F2BD686C747A4C0000007072696EAE
:101D900074665F733A206261642025732061726704
:101DA000756D656E740000000278C9B28A421AB17E
:101DB0001CBF10F8012FF9E718BF00207047000082
:101DC00080B508B90FF21C0005490B681BB122222F
:101DD0000021984701E000F05DF8222002BD0000DC
:101DE00050320020636F6E73747261696E74206884
:101DF000616E646C65723A20626164206D65737314
:101E00006167650000F10103810704D010F8011B30
:101E100089B18107FAD10268B2F10131914311F021
:101E2000803F04BF50F8042FF6E710F8011B11B1F2
:101E300010F8011BFBE7C01A70470000C9B2830706
:101E400006D0521E22D310F8013B9942F7D11FE071
:101E5000083A13D302F1040241EA012141EA0141A7
:101E600050F8043B121F21BF4B40A3F1013C2CEA68
:101E7000030C1CF0803FF3D0C9B2001F083210F8E9
:101E8000013B521E28BF91EA030FF8D818BF01206A
:101E9000401E7047012000F001B8000080B5AFF38C
:101EA0000080024A11001820ABBEFBE726000200AA
:101EB000DFF878030068C00501D4012000E00020AD
:101EC0007047DFF86C030068800401D4012000E053
:101ED00000207047DFF854030068000501D401209A
:101EE00000E000207047DFF84C030068400701D491
:101EF000012000E000207047DFF838030068000789
:101F000001D4012000E000207047DFF82C030068B6
:101F1000000501D4012000E000207047DFF81C0319
:101F20000068000601D4012000E000207047DFF8BF
:101F300004030068000401D4012000E00020704781
:101F400080B5FFF7B5FF002805D0FFF7BAFF0028DE
:101F500001D0012000E0002002BD80B5FFF7A8FFFE
:101F6000002805D0FFF7ADFF002801D0012000E0D8
:101F7000002002BD80B500F07CF800F032F801BD11
:101F8000DFF8BC12DFF8B822D27A8854DFF8B0123A
:101F9000C97A491CDFF8A822D172DFF8A412C97AE5
:101FA0000A2903DB0021DFF89822D1727047A44888
:101FB000807AA349C97A884201D1002010E0A04864
:101FC0009F49897A405C9E49897A491C9C4A917252
:101FD0009B49897A0A2902DB0021994A9172C0B291
:101FE0007047E0B501214FF4F270FEF76DFD00205F
:101FF0008DF8040000208DF8060000208DF8070001
:1020000002208DF805004FF48070009069468E48DC
:10201000FEF7A8FD4FF40050009069468B48FEF78C
:10202000A1FD4FF40060009069468748FEF79AFDD5
:102030000420009069468648FEF794FD0820009031
:1020400069468348FEF78EFD4FF4006000906946B4
:102050008048FEF787FD8020009069467E48FEF7A5
:1020600081FD4FF40040009069467948FEF77AFD03
:1020700007BD00207249887200207149C872002093
:102080006F4908730020C0B20A281FDA64216D4A24
:10209000C0B203011A44118102216A4AC0B203018D
:1020A0001A4411710021674AC0B203011A449172A7
:1020B0000021644AC0B203011A44D1720021614A6E
:1020C000C0B203011A441173401CDCE764215D4A6D
:1020D000118705215B4A82F83B106421594AA2F816
:1020E00048100521574A82F84B106421554AA2F83E
:1020F00058100521534A82F85B106421514AA2F816
:10210000681005214F4A82F86B1054494D4A1160FE
:1021100053494C4A116153494A4A11625249494A4A
:1021200011635249474A11645149464A1165514960
:10213000444A11665049434A11675049414AC2F81E
:1021400080104F493F4AC2F89010704738B50400DC
:102150003C48E4B2210100EB0105286880470028D3
:1021600045D02879052802DA052028715DE0287914
:102170000A2803DA2879401C287156E0A87A00283A
:1021800009D10120A872E4B2032000FB04F0401C36
:10219000C0B2FFF7F5FE2889002846D0E8882989D3
:1021A00088420FD2E888401CE880E8882989884264
:1021B0003BD1E4B2032000FB04F0C01CC0B2FFF727
:1021C000DFFE32E0E87A00282FD0287B401C2873FD
:1021D000287BE97A884228D300202873E4B20320C0
:1021E00000FB04F0401CC0B2FFF7CAFE1DE02879D6
:1021F000062802DB0520287113E02879002803D087
:102200002879401E28710CE0A87A012809D1002005
:10221000A872E4B2032000FB04F0801CC0B2FFF7F8
:10222000AFFE0020E8800020287331BD102002405E
:1022300010080240101C0240101402401018024006
:1022400038320020643000200020024000080240A4
:10225000001C02400014024000180240B11E000899
:10226000C31E0008D51E0008E71E0008F91E00085E
:102270000B1F00081D1F00082F1F0008411F00082A
:102280005B1F000810B50024E4B20A2C05DA200018
:10229000C0B2FFF75BFF641CF6E710BDF8B500277E
:1022A00000F022F900F0C7F800F0B1F80025FEF7C1
:1022B00019FE0020FEF72DFF0020FEF7AEFF4FF4C1
:1022C000FA71002000F0C4F9FEF7D3FF002600F0F9
:1022D00018F9F6B2012E28D1002006006B480278CA
:1022E0006A4841786A4800F01FFA6848B0F9080067
:1022F00000906648B0F906306448B0F9042063489D
:10230000B0F90210634800F00FFA6048B0F910000D
:1023100000905E48B0F90E305C48B0F90C205B4884
:10232000B0F90A105C4800F0FFF9EDB2002D0BD1B6
:10233000002000F0BDF900280DD0FEF7ABFFFEF73E
:1023400098FF0120060006E0002000F0B1F9002807
:1023500001D001200600FFF72AFE0400E4B2002CA1
:10236000B5D0E4B2200001280ED004281AD00728E6
:1023700021D00A2827D00D2835D0102843D0132883
:1023800042D0162841D041E040484078002803D18F
:102390000120FEF742FF02E00020FEF73EFF012091
:1023A000060094E7012005003C4800F0BDF93C48D8
:1023B000FFF731F88BE7FFF746F8002005003948B2
:1023C00000F0B2F983E731480078062804DA2F4894
:1023D0000078401C2D4908702C480078FEF799FEC3
:1023E0000120060073E729480078002804D0274818
:1023F0000078401E2549087024480078FEF789FEC1
:102400000120060063E762E761E760E75FE780B508
:10241000254800F089F9254800F086F9244800F0A5
:1024200083F9244800F080F9234800F07DF915A0D5
:1024300000F07AF901BD80B5204800F075F9204917
:10244000204800F071F910A11F4800F06DF91F49F4
:102450001F4800F069F90023032201211D4800F004
:1024600063F91D4800F060F91C4800F05DF91C4854
:1024700000F05AF91B4800F057F9104800F054F9E1
:1024800001BD00000D0A0000312E32002432002070
:10249000DC2C0008502A0008B02A0008A8290008EF
:1024A000400D0300802A00082C2C0008802B000817
:1024B0004C2C0008A42B00086C2C0008EC28000809
:1024C000082B0008442D0008582D0008902D000806
:1024D0006C2D0008E0290008A82D0008F42C000845
:1024E000C02C0008302B000880B5FDF74DFEFFF72B
:1024F00041FD00F032F801BD80B5FFF7C3FE01BD1C
:102500007047704710B440B2002808D50A01764BD6
:1025100040B210F00F04234403F8042C03E00A0136
:10252000724B40B21A5410BC704710B50400601EC4
:10253000B0F1807F01D301200EE0601E6C4908607D
:102540000F215FF0FF30FFF7DDFF002069490860D1
:10255000072069490860002010BD10B50024E4B2CE
:10256000042C20DA00206549E4B20C2202FB04F2BC
:102570001144486000206149E4B20C2202FB04F2DD
:102580001144886000205D49E4B20C2202FB04F291
:102590001144487000205949E4B20C2202FB04F2B5
:1025A0008854641CDBE7564800684FF47A71B0FB2E
:1025B000F1F0FFF7BAFF10BD10B5524800680028CF
:1025C00009D050480068401E4E490860002802D1DA
:1025D00001204D4908700024E4B2042C09DA474870
:1025E000E4B20C2101FB04F1084400F021F8641C62
:1025F000F2E746480068401C4449086043480068C8
:102600007FF00041884202D1002040490860FFF776
:1026100077FF3F480078401C3D4908703C480078EF
:102620000A2804DB00203A490870FFF765FF10BD57
:10263000416800290BD04168491E4160002906D13C
:10264000012141700178012901D181684160704701
:1026500038B504000D00E4B2042C05DB2F4A2D49E7
:102660002D4800F061F8FEE7012080F31088234830
:10267000E4B20C2101FB04F1084445601F48E4B2B8
:102680000C2101FB04F10844856000201B49E4B2E1
:102690000C2202FB04F21144487001201749E4B2F5
:1026A0000C2202FB04F28854002080F3108831BD14
:1026B0000100C9B2042901DB002013E00F48C9B2B0
:1026C0000C2202FB01F210444078012809D10020BD
:1026D0000A4AC9B20C2303FB01F31A4450700120CB
:1026E00000E000207047000018ED00E000E400E08A
:1026F00014E000E018E000E010E000E054310020B9
:102700001000002048320020543200204C320020BB
:1027100055320020A42800080C2C0008302D000899
:1027200080B5FFF749FF01BD0EB4C0B5024603A84E
:1027300000210190009101AB0121044878440C3044
:10274000FFF7D2F806BC5DF810FB00BFC105000022
:1027500080B54848006850F4700046490860464813
:10276000006850F0010044490860002043490860B7
:1027700041480168424801403F48016041484249A0
:1027800008603D48006830F480203B490860002024
:102790003E49086000F005F85FF000603C490860C1
:1027A00001BD82B0002001900020009032480068F6
:1027B00050F48030304908602F48006810F4003031
:1027C00000900198401C01900098002803D10198C6
:1027D000B0F5A04FF0D128480068800302D5012051
:1027E000009001E000200090009801283ED1294887
:1027F000006850F08050274908602748006850F46E
:102800004040254908601D4800681C4908601B4875
:10281000006850F40040194908601848006850F4F6
:10282000A050164908601D48174908601248006802
:1028300050F08070104908600F4800688001FBD597
:1028400040F20570164908600C4800688008800056
:102850000A4908600948006850F00200074908600A
:102860000648006810F00C000828F9D102B0704743
:102870000000000088ED00E0003802400838024007
:10288000FFFFF6FE10300024043802400C380240EE
:1028900008ED00E040380240007000401954400745
:1028A000003C0240433A5C55736572735C41646D51
:1028B000696E6973747261746F725C4465736B7472
:1028C0006F705C373630365C557365725C6273705E
:1028D0005F73746D3332663478785C7372635C62F4
:1028E00073705F74696D65722E6300002A2A2A2A4C
:1028F0002A2A2A2A2A2A2A2A2A2A2A2A2A2A2A2A38
:102900002A2A2A2A2A2A2A2A2A2A2A2A2A2A2A2A27
:102910002A2A2A2A2A2A2A2A2A2A2A2A2A2A2A2A17
:102920002A2A2A2A2A2A2A2A2A0A0D0019E050F8D5
:10293000042BD30744BFA9F101039A18091F0023F0
:10294000042942F8043BF9D25FEA817C134604D59E
:102950004FF0000CA2F800C09B1CC90744BF002127
:10296000197050F8041B0029E1D1704770470848DE
:102970000021C9B22A2909D2C9B2425C054B1A808A
:10298000054A12885206FBD5491CF2E7FEE7000013
:10299000DC2A00080410014000100140FEE7FEE7B9
:1029A000FEE77047704770470D0A414437363036AE
:1029B000BDF8C8EB4649464FB9A4D7F7C4A3CABD72
:1029C00020283230304B487A2038CDA8B5C0CDAC65
:1029D000B2BDB2C9BCAF292E2E2E0D0A00000000D8
:1029E0002A20B9CCBCFEBFE2B0E6B1BE203A2056E8
:1029F00025642E25642E2564202853544D333246F9
:102A00003478785F5374645065726970685F44729B
:102A100069766572290D0A0030B50168846842182C
:102A2000416802EB5103C9070BD54C4409E012F988
:102A3000011B12F8015B002904F8015B05D5491C54
:102A4000F9D19A42F3D10C3030BD491EF1D5F8E7E7
:102A5000434831203D202536642C20434832203D18
:102A6000202536642C20434833203D202536642C15
:102A700020434834203D202536642C2000000000EF
:102A80000D0A414437363036BDF8C8EBC6D5CDA85F
:102A9000B9A4D7F7C4A3CABD28302E35C3EBB6A856
:102AA000CAB1B2C9BCAF292E2E2E0D0A00000000FB
:102AB000434835203D202536642C20434836203DB0
:102AC000202536642C20434837203D202536642CB1
:102AD00020434838203D202536640D000D0A456E00
:102AE00074657220486172644661756C745F4861F8
:102AF0006E646C65722C2053797374656D20486127
:102B00006C742E0D0A00000056352D3132305F41B5
:102B10004437363036A3A838CDA8B5C03136CEBB41
:102B2000CDACB2BD414443A3A9C0FDB3CC0000006D
:102B30002A20436F70797269676874207777772EDF
:102B400061726D666C792E636F6D20B0B2B8BBC0D8
:102B5000B3B5E7D7D30D0A0010B50749794418314A
:102B6000064C7C44163404E00A68081D114488476A
:102B70000146A142F8D110BD740000009000000091
:102B80004B31BCFC202020202020203A20C7D0BB85
:102B9000BBC1BFB3CC283556BBF2313056290D0A24
:102BA000000000004B33BCFC202020202020203AD5
:102BB00020BDF8C8EBC8EDBCFEB6A8CAB1B2C9BC0E
:102BC000AFC4A3CABD0D0A004EF68851CEF2000173
:102BD000086840F470000860BFF34F8FBFF36F8F39
:102BE0004FF00070E1EE100A7047000041FDFFFF5A
:102BF000FC3100005C000020000000001DFEFFFF13
:102C00001C03000076000000000000204572726F77
:102C1000723A2066696C652025732C2066756E6398
:102C200074696F6E20257328290D0A000D0AC7EB01
:102C3000B2D9D7F7BFAAB7A2B0E5C9CFB5C4B0B46F
:102C4000BCFCBACDD2A1B8CB3A0D0A004B32BCFCC9
:102C5000202020202020203A20BDF8C8EB464946FD
:102C60004FB9A4D7F7C4A3CABD0D0A00D2A1B8CBEF
:102C7000C9CFCFC2BCFC203A20B5F7BDDAB9FDB24E
:102C8000C9D1F9B2CECAFD0D0A00000000F00DF85E
:102C9000002801D0FFF760FFAFF300800020AFF302
:102CA0000080FFF7FBFA00F002F80120704700F007
:102CB00001B8000007463846FFF7F0F8FBE70000D0
:102CC0002A20456D61696C203A2061726D666C79CD
:102CD0004071712E636F6D200D0A000052616E67A6
:102CE00065203D2025642C204F53203D2025642C59
:102CF000200000002A205151202020203A2031328B
:102D00003935373434363330200D0A0038B50446AF
:102D10000D46284600F006F8A84218BF00242046B9
:102D200032BD00000149FDF737BE00BF140000208E
:102D30006273705F53746172744175746F54696D1E
:102D4000657200002A20C0FDB3CCC3FBB3C62020AF
:102D5000203A2025730D0A002A20C0FDB3CCB0E62E
:102D6000B1BE2020203A2025730D0A002A20B7A2E8
:102D7000B2BCC8D5C6DA2020203A2025730D0A003F
:102D80000148804701480047512700089D2D000851
:102D9000323031342D30322D32380000AFF3008024
:102DA000FFF712FFFFF772FF2A200A0D0000000054
:102DB000FFF7DCBDFFF7DBBDFFF7F0BDFFF7EFBDB1
:102DC000FFF7EEBDFFF7EDBDFFF7ECBDFFF7EBBD85
:102DD000FFF7A6BCFFF7FEBFFFF7FEBFFFF7FEBF82
:102DE000FFF7FEBFFFF7FEBFFFF7FEBFFFF7FEBF17
:102DF000FFF7FEBFFFF7FEBFFFF7FEBFFFF7FEBF07
:102E0000FFF7FEBFFFF7FEBFFFF7FEBFFFF7FEBFF6
:102E1000FFF7FEBFFFF7FEBFFFF7FEBFFFF7FEBFE6
:102E2000FFF7FEBFFFF7FEBFFFF7FEBFFFF7FEBFD6
:102E3000FEF786BBFFF7FEBFFFF7FEBFFFF7FEBF43
:102E4000FFF7FEBFFFF7FEBFFFF7FEBFFFF7FEBFB6
:102E5000FFF7FEBFFFF7FEBFFFF7FEBFFFF7FEBFA6
:102E6000FFF7FEBFFFF7FEBFFDF751BDFDF754BDF5
:102E7000FDF757BDFFF7FEBFFFF7FEBFFFF7FEBF31
:102E8000FFF7FEBFFFF7FEBFFFF7FEBFFFF7FEBF76
:102E9000FFF7FEBFFFF7FEBFFFF7FEBFFFF7FEBF66
:102EA000FFF7FEBFFFF7FEBFFFF7FEBFFFF7FEBF56
:102EB000FFF7FEBFFFF7FEBFFFF7FEBFFFF7FEBF46
:102EC000FFF7FEBFFFF7FEBFFFF7FEBFFFF7FEBF36
:102ED000FFF7FEBFFFF7FEBFFFF7FEBFFFF7FEBF26
:102EE000FFF7FEBFFFF7FEBFFFF7FEBFFFF7FEBF16
:102EF000FDF71CBDFFF7FEBFFFF7FEBFFFF7FEBFEC
:102F0000FFF7FEBFFFF7FEBFFFF7FEBFFFF7FEBFF5
:102F1000FFF7FEBFFFF7FEBFFFF7FEBFFC00230178
:102F20000203040102030406070809007A030A02E7
:102F30000401010431002054310020043100200438
:102F4000310020FC000304310020FC000758000081
:072F50002044000020E00016
:0400000508002D9D25
:00000001FF
