:020000040800F2
:10000000487100209D010008E10C0008A1090008CA
:10001000DD0C0008950500088115000800000000AF
:10002000000000000000000000000000050F0008B4
:100030004706000800000000990D00083510000870
:10004000B7010008B7010008B7010008B7010008B0
:10005000B7010008B7010008B7010008B7010008A0
:10006000B7010008B7010008B7010008B701000890
:10007000B7010008B7010008B7010008B701000880
:10008000B7010008B7010008B7010008B701000870
:10009000B7010008B7010008B701000849060008C9
:1000A000B7010008B7010008B7010008B701000850
:1000B000B7010008B7010008B7010008B701000840
:1000C000B7010008B7010008B7010008B701000830
:1000D000B70100082911000839110008491100086A
:1000E000B7010008B7010008B7010008B701000810
:1000F000B7010008B7010008B7010008B701000800
:10010000B7010008B7010008B7010008B7010008EF
:10011000B7010008B7010008B7010008B7010008DF
:10012000B7010008B7010008B7010008B7010008CF
:10013000B7010008B7010008B7010008B7010008BF
:10014000B7010008B7010008B7010008B7010008AF
:10015000B7010008B7010008B701000871110008D5
:10016000B7010008B7010008B7010008B70100088F
:10017000B7010008B7010008B7010008B70100087F
:10018000B7010008B7010008DFF80CD000F02EF826
:1001900000480047651B000848710020064880475A
:1001A00006480047FEE7FEE7FEE7FEE7FEE7FEE75C
:1001B000FEE7FEE7FEE7FEE7C11000088901000840
:1001C00030B50B46014600202022012409E021FA27
:1001D00002F59D4205D303FA02F5491B04FA02F524
:1001E0002844151EA2F10102F1DC30BD064C074D7A
:1001F00006E0E06840F0010394E8070098471034F7
:10020000AC42F6D3FFF7C4FFAC1C0008CC1C0008BE
:100210001CB50121084600F0D1FD0121582000F055
:10022000BDFD0C220021524800F096FB0C2201215A
:100230004F4800F091FB0C2204214D4800F08CFB4C
:100240000C2205214A4800F087FB0C22082148486F
:1002500000F082FB0C220921454800F07DFB0C22B6
:100260000A21434800F078FB0C220E21404800F0A0
:1002700073FB0C220F213E4800F06EFB4CF23370F2
:10028000009002208DF8040003208DF80500002066
:100290008DF806008DF807006946354800F014FB1C
:1002A0000C220421334800F057FB0C220521314871
:1002B00000F052FB0C2207212E4800F04DFB0C22CF
:1002C00008212C4800F048FB0C220921294800F0A5
:1002D00043FB0C220A21274800F03EFB0C220B2195
:1002E000244800F039FB0C221146224800F034FB70
:1002F0000C220D211F4800F02FFB0C220E211D485F
:1003000000F02AFB0C220F211A4800F025FB4FF6C3
:10031000B07000906946174800F0D6FA0C221146DA
:10032000154800F019FB4FF48050009069461248C0
:1003300000F0CAFA01214FF4C07000F02FFD012037
:100340008DF8040003208DF8050000208DF80600CC
:100350008DF807004FF4BC4000906946074800F054
:10036000B3FA102000906946054800F0ADFA1CBDB4
:10037000000C02400010024000180240001C024025
:100380000020024000B597B00320019000200290A9
:10039000062003900120049000200590069007900D
:1003A00006200890002009900A9010200B90002051
:1003B0000C900D900E900F9010904FF48050119073
:1003C000002012901390149001A81590169008A880
:1003D00000F00AFA0121062000F0ECF917B000BD88
:1003E0002348008823494882214801882148818286
:1003F0001F4801881F48C1821D4801881D4801838C
:100400001B4801881B48418319480188194881838A
:10041000174801881748C183154801881548018489
:100420000020154908701EE0124812301249097860
:1004300010F8111010480078012202EB40020D481C
:10044000801C815410300C49097830F811000212D8
:10045000094800780749891C01F8102006480078EF
:10046000401C05490870044800780828DCDB704708
:100470000000406C480000200000002010200449CB
:1004800048830883088308830883488370470000F3
:100490000020024038B90021074A51704FF48041D2
:1004A000064A118006E00121034A51708903034A7C
:1004B000921E118070470000480000201A1C024064
:1004C0002C490870072846D2DFE800F046040E19D0
:1004D000232E3A004FF40061274A11804910118001
:1004E0004910921E118043E04FF40061224A1180AE
:1004F0004910921E11804910921C118038E04FF46F
:1005000000611D4A11804910921E1180491011800E
:100510002EE04FF40061184A921E11804910921C7F
:1005200011804910118023E04FF40061124A921E9D
:1005300011804910921C11804910921E118017E001
:100540004FF400610C4A921E11804910118049102D
:10055000921C11800CE000BF0021064A11704FF47C
:100560000061054A1180491011804910118000BFB7
:1005700000BF7047480000201A1C02404FF4805012
:100580000349088008800880891E088070470000A1
:100590001A1C024000BFFEE7014609B90B4870472C
:1005A000012901D10A48FAE7022901D10948F6E7F1
:1005B000032901D10020F2E7042901D10020EEE750
:1005C000052901D10448EAE70020E8E7A41000204B
:1005D000CC180020F42000201C29002008B54FF47E
:1005E000E06000F0CFFB25208DF8000000208DF8A2
:1005F000020001208DF80300684600F087FB2620EA
:100600008DF8000001208DF802008DF80300684687
:1006100000F07CFB27208DF8000002208DF80200FE
:1006200001208DF80300684600F070FB47208DF82C
:10063000000005208DF8020001208DF803006846B7
:1006400000F064FB08BD704710B54FF4807000F0F7
:1006500021F890B101F07CF908490860084600686B
:1006600007490968401A07490860044800680449B6
:1006700008604FF4807000F007F810BD14000020EF
:10068000180000201C00002001490860704700008D
:10069000143C014001460020034A12680A4201D07E
:1006A000012000E000207047143C01400021234954
:1006B0008279002A3AD00A46126803689A430B46A8
:1006C0001A600A1D126803689A430B1D1A600279AA
:1006D00011440A6803681A430A60184A083212680B
:1006E00003689A43154B08331A601A1D1268036891
:1006F0009A43124B0C331A604279102A0ED11A1FFA
:10070000126803681A430D4B08331A601A1D1268E9
:1007100003681A43094B0C331A600DE0074942790C
:1007200011440A6803681A430A6005E0027911441B
:100730000A6803689A430A6070470000003C014061
:100740001FB50020184908601849086001210802F7
:1007500000F024FB00208DF80C008DF80E008DF8C1
:100760000F0002208DF80D00C001029002A9104870
:1007700000F0AAF80121880300F040FB0821084698
:1007800000F0C2FB4FF48070009000208DF8040050
:100790000C208DF8050001208DF806006846FFF753
:1007A00085FF00F09EFA1FBD1C00002018000020ED
:1007B0000020024051B14FF0204252F8202042F078
:1007C00001024FF0204343F8202009E04FF020427F
:1007D00052F82020034B1A404FF0204343F82020CA
:1007E00070470000FEFF0F00D0E901121143C268FC
:1007F0001143026911434269114382691143C2697D
:100800001143026A1143426A1143826A1143C26A68
:100810001143026B11434FF02043026843F822104A
:100820008168082908D11A46016852F8211041F060
:100830004001026843F82210416B0968426B52681C
:1008400041EA0211426B926841EA0221426B9289AD
:1008500041EA0241426B128A41EA0251426B127D27
:1008600041EA0261426B926911430268521C4FF0E7
:10087000204343F82210C16AB1F5804F1AD1816B31
:100880000968826B526841EA0211826B926841EA00
:100890000221826B128A41EA0251826B127D41EA87
:1008A0000261826B92691143026803EB8202C2F813
:1008B000041108E06FF070414FF02043026803EB31
:1008C0008202C2F804117047F0B50A4600210023E5
:1008D000002400BF3DE0012505FA01F3156805EA93
:1008E00003049C4234D105684F000326BE40B54343
:1008F000056015794E00B5400668354305601579E9
:10090000012D02D01579022D16D185684F000326DE
:10091000BE40B543856055794E00B5408668354385
:100920008560456801268E40B543456045689679E7
:100930008E40B6B235434560C5684F000326BE40C1
:10094000B543C560D5794E00B540C6683543C5602E
:10095000491C1029BFD3F0BDF0B5002300244D077A
:10096000ED0E02FA05F3CE1000F1200555F82650E1
:100970004E07F70E0F26BE40B543CF1000F12006FC
:1009800046F82750CE1000F1200555F8265045EACC
:100990000304CE1000F1200545F82640F0BD00000C
:1009A00008A100200AE00A5C114B9A8000BF104A9F
:1009B000128812F0400FFAD0421CD0B22A28F2D38B
:1009C00000BFFEE70D0A456E7465722048617264CF
:1009D0004661756C745F48616E646C65722C20535F
:1009E000797374656D2048616C742E0D0A000000E7
:1009F0000010014000B587B00121084600F0CEF993
:100A00000121102000F0FAF907220921AB48FFF775
:100A1000A3FF07220A21A948FFF79EFF00208DF8B7
:100A20001A0001208DF81B0002208DF8180000022A
:100A3000059002208DF8190005A9A048FFF744FF92
:100A400002208DF818004002059005A99B48FFF789
:100A50003BFF4FF4E13001900020ADF80800ADF805
:100A60000A00ADF80C00ADF810000C20ADF80E0037
:100A700001A9934800F0E8FB012240F2255190487B
:100A800000F0BDFB01218E4800F083FB40218C4823
:100A900000F076FB0121084600F080F901214804AE
:100AA00000F09CF9072203218448FFF755FF00203E
:100AB0008DF81A0001208DF81B0002208DF8180017
:100AC0008DF818000820059002208DF8190005A95E
:100AD0007A48FFF7F9FE4FF4165001900020ADF868
:100AE0000800ADF80A00ADF80C00ADF810000420C5
:100AF000ADF80E0001A9734800F0A6FB012240F2F8
:100B00002551704800F07BFB01216E4800F041FB4D
:100B100040216C4800F034FB0121022000F03EF936
:100B200001208DF8180000208DF81A008DF81B00A8
:100B300003208DF819000420059005A96248FFF7ED
:100B4000C3FE0121022000F029F90121880400F0F0
:100B500045F907220A215C48FFF7FEFE07220B2118
:100B60005948FFF7F9FE00208DF81A0001208DF892
:100B70001B0002208DF818004002059002208DF81D
:100B8000190005A95048FFF79FFE02208DF81800B4
:100B90008002059005A94C48FFF796FE4FF41650C9
:100BA00001900020ADF80800ADF80A00ADF80C0087
:100BB000ADF810000C20ADF80E0001A9434800F07C
:100BC00043FB012240F22551404800F018FB01216F
:100BD0003E4800F0DEFA40213C4800F0D1FA012105
:100BE000442000F0DBF80121202000F007F9082262
:100BF0000E213748FFF7B0FE082207213548FFF7DE
:100C0000ABFE082211463248FFF7A6FE08220F214C
:100C10002F48FFF7A1FE00208DF81A0001208DF863
:100C20001B0002208DF818004003059002208DF86B
:100C3000190005A92648FFF747FE02208DF8180085
:100C40008020059005A92348FFF73EFE02208DF87D
:100C50001800C001059005A91D48FFF735FE0220C8
:100C60008DF818008003059005A91948FFF72CFEA0
:100C70004FF4E13001900020ADF80800ADF80A0013
:100C8000ADF80C004FF44070ADF810000C20ADF83A
:100C90000E0001A9104800F0D7FA012240F22551B8
:100CA0000D4800F0ACFA01210B4800F072FA402127
:100CB000094800F065FA07B000BD000000000240DE
:100CC0000010014000440040000402400048004081
:100CD00000180240000802400014014000BFFEE777
:100CE000704708B54FF4C06000F04CF817208DF83D
:100CF000000000208DF801008DF8020001208DF821
:100D00000300684600F002F808BD000070B500213D
:100D100000230F22C47824B3174C246804F4E06441
:100D2000C4F5E064C4F30721C1F10404E3B20A414D
:100D300044789C40E1B28478144021430C07210E92
:100D40000E4C05786155047804F01F050124AC4071
:100D500005786D114FF0E02606EB8505C5F80041DA
:100D600009E0047804F01F040125A540044C06782E
:100D7000761144F8265070BD0CED00E000E400E070
:100D800080E100E002490143024A1160704700001F
:100D90000000FA050CED00E07047000029B1064A9A
:100DA00012680243044B1A6004E0034A126882434B
:100DB000014B1A60704700003038024029B1064AE2
:100DC00012680243044B1A6004E0034A126882432B
:100DD000014B1A60704700003838024029B1064ABA
:100DE00012680243044B1A6004E0034A126882430B
:100DF000014B1A60704700004038024029B1064A92
:100E000012680243044B1A6004E0034A12688243EA
:100E1000014B1A607047000044380240F0B50021D1
:100E200000220024022500260223324F3F6807F0EB
:100E30000C0121B1042905D0082937D105E02E4F36
:100E4000076036E02D4F076033E02A4F3F1F3F68B1
:100E5000C7F38056274F3F1F3F6807F03F036EB12F
:100E6000264FB7FBF3F7DFF88CC0ACF1040CDCF8CD
:100E700000C0CCF3881C07FB0CF40CE01E4FB7FB42
:100E8000F3F7DFF870C0ACF1040CDCF800C0CCF371
:100E9000881C07FB0CF4174F3F1F3F68C7F301473F
:100EA0007F1C7D00B4FBF5F7076002E0124F07607E
:100EB00000BF00BF0F4F3F6807F0F0010909104F56
:100EC0007A5C0768D74047600A4F3F6807F4E051F3
:100ED000890A0B4F7A5C4768D7408760054F3F68A7
:100EE00007F46041490B064F7A5C4768D740C760FA
:100EF000F0BD0000083802400024F40040787D0175
:100F0000200000207047000030B500228B071C0F26
:100F10000F2303FA04F20B4B8C1053F82430934345
:100F2000084C8D1044F8253023468C1053F824309B
:100F30008C07240F00FA04F42343024C8D1044F86C
:100F4000253030BD083801400CB5002001900090DC
:100F50003448006840F480303249086000BF3148AE
:100F6000006800F4003000900198401C0190009847
:100F700018B90198B0F5A04FF1D12A48006810F4D3
:100F8000003F02D00120009001E000200090009876
:100F9000012845D123484030006840F08050214965
:100FA000403108602048006840F440401E49086015
:100FB0001C48083000681B49083108600846006872
:100FC00040F4004008600846006840F4A050086003
:100FD0001648091F0860081F006840F08070091F4C
:100FE000086000BF0F48006810F0007FFAD040F2A0
:100FF00005700F4908600B480830006820F00300B6
:101000000849083108600846006840F0020008609E
:1010100000BF04480830006800F00C000828F8D130
:101020000CBD000000380240007000401954400719
:10103000003C024010B500F001F810BD10B51B488F
:10104000006840B119480068401E1849086002D184
:10105000012017490870002408E004EB4401154AF8
:1010600002EB810000F0F4FC601CC4B2042CF4DB41
:1010700011480068401C10490860084600686FF07D
:101080000041884202D100200B49086000F0DFFCDB
:101090000A480078401CC0B2084908700A2803DBDF
:1010A0000020087000F0D2FC10BD000004000020F9
:1010B00008000020741000200C0000201000002008
:1010C00010B51548006840F47000134908601348D3
:1010D000006840F001001149086000200F49083104
:1010E00008600E4800680E4908400C4908600D4829
:1010F000091D0860081F006820F48020091F08608F
:10110000002006490C310860FFF71EFF4FF0006019
:1011100001498039086010BD88ED00E000380240C8
:10112000FFFFF6FE1030002410B5024800F0FFF873
:1011300010BD0000A410002010B5024800F0F7F820
:1011400010BD0000CC18002010B5024800F0EFF8E8
:1011500010BD0000F42000200420014908807047E1
:101160001804024004200149088070471A04024014
:1011700010B5024800F0DBF810BD00001C2900206B
:1011800001F40072B2F5007F00D100BFCA430280B3
:10119000704721B1828942F40052828104E0828941
:1011A0004DF6FF731A408281704770B502460024E5
:1011B000002300250020A1F510666A3E00D100BF83
:1011C000C1F3421501F01F03012606FA03F3012DB6
:1011D00002D19689334006E0022D02D1168A3340AF
:1011E00001E0968A33400C12012606FA04F41688B0
:1011F000344013B10CB1012000E0002070BDF0B507
:1012000003460024002600250020A1F510676A3F50
:1012100000D100BF1846C1F3421401F01F06012798
:1012200007FA06F5012C01D10C3004E0022C01D1A3
:10123000103000E014301AB107682F43076002E055
:101240000768AF430760F0BD2DE9FF4705460E462E
:101250000024A14600BFA046B08900B100BF2C8A7F
:1012600024F44054F08804432C82AC8941F20C6091
:101270008443B08831890843718908430443AC81B1
:10128000AC8A24F44074B0890443AC826846FFF70A
:10129000C5FD2048854202D01F48854202D1DDF8B5
:1012A0000C9001E0DDF80890A88910F4004F08D0F8
:1012B00009EBC90000EB091031684900B0FBF1F7F8
:1012C00007E009EBC90000EB091031688900B0FBA9
:1012D000F1F76420B7FBF0F004012009642101FB61
:1012E0001078A88910F4004F08D0322000EBC80015
:1012F000B0FBF1F000F00700044308E0322000EBFF
:1013000008106421B0FBF1F000F00F0004432C81C1
:10131000BDE8FF87001001400014014001468888A5
:10132000C0F308007047C1F308028280704710B50F
:10133000044640F225512068FFF737FFE0B12068EE
:10134000FFF7ECFFE28AA1688854E08A401C80B273
:10135000E082E189884201DB0020E082608BE18944
:10136000884202DA608B401C6083608B012803D1C5
:10137000606A08B1606A804740F227712068FFF711
:1013800014FF08B3A08A60B9002240F227712068D8
:10139000FFF735FF012240F226612068FFF72FFF9B
:1013A00037E0638A6268D15C2068FFF7BCFF608A1F
:1013B000401C80B26082A189884201DB00206082EB
:1013C000A08A401EA08224E040F226612068FFF738
:1013D000ECFEF0B1A08A50B9002240F226612068EC
:1013E000FFF70DFF206AA0B1206A804711E0638AF1
:1013F0006268D15C2068FFF796FF608A401C80B26B
:101400006082A189884201DB00206082A08A401EA0
:10141000A08210BD2DE9F04104460E461746002576
:1014200027E00CE0012000F0CFF8B4F81480002091
:1014300000F0CAF8A089404500DD01E000BFF1E7F7
:1014400000BF705D228A61688854012000F0BCF8FA
:10145000208A401C80B22082A189884201DB0020C2
:101460002082A08A401CA082002000F0ADF8681CF9
:1014700085B2BD42D5DB012240F227712068FFF71B
:10148000BEFEBDE8F08100002B482C4908602C48C6
:1014900048602C4888604FF480608881C8810020B3
:1014A00008824882C882088348838882C8610862AB
:1014B00048622548254908602548486025488860D5
:1014C00001208881C002C881002008824882C88229
:1014D000088348838882C861086248621E481F49A1
:1014E00008601F4848601F4888604FF4806088810A
:1014F000C881002008824882C88208834883888285
:101500001948C861194808620020486218481949FA
:10151000086019484860194888604FF480608881E5
:10152000C881002008824882C88208834883888254
:10153000C86108624862704700100140A410002092
:10154000CC100020CC14002000440040CC18002017
:1015500011000020F418002000480040F420002072
:101560001C2100201C2500205911000865110008CD
:10157000001401401C29002044290020442D002093
:1015800000BFFEE70FB4054B10B503A9044A02984B
:1015900000F01EF810BC5DF814FB0000531B00089F
:1015A0004400002002E008C8121F08C1002AFAD136
:1015B00070477047002001E001C1121F002AFBD1D3
:1015C000704780F31088704780F3108870470000E0
:1015D0002DE9FF4F8BB088460546002667E1252898
:1015E0007AD100246D1CB649A146A24601222B786F
:1015F000203B02FA03F0084202D004436D1CF6E7D8
:1016000028782A2810D06FF02F022878A0F1300116
:10161000092915D809EB890102EB410144F00204C4
:1016200000EB01096D1CF0E758F8049BB9F1000FBD
:1016300003DA44F40054C9F1000944F002046D1CBB
:1016400028782E2817D115F8010F44F004042A2811
:101650000ED06FF02F022878A0F1300109290AD8A6
:101660000AEB8A0102EB410100EB010A6D1CF2E773
:1016700058F804AB6D1C28786C280FD006DC4C2879
:1016800017D068280DD06A2814D104E0742810D02F
:101690007A280FD10DE044F400140AE044F48014D9
:1016A00001E044F440146978814202D16D1C04F5D4
:1016B00080146D1C2878692866D007DC002876D055
:1016C000632828D0642807D15EE005E06E2808D0A2
:1016D00073282AD075287AD0DDE90D129047761C40
:1016E000E4E0C4F30250022809D003280DD0D8F852
:1016F000001004280DD00E6008F10408D6E0D8F8D8
:101700000010F217C1E90062F6E7D8F800100E8069
:10171000F2E70E70F0E718F8041B8DF800100020B7
:101720008DF80100EB46012003E058F804BB4FF0B0
:10173000FF3061074FF0000701D40AE07F1C5745D6
:101740000DDA8742FADB1BF807100029F6D106E014
:101750007F1C8742FCDB1BF807100029F8D1DDE96C
:101760000D23A9EB07008146214600F0BEF8304466
:10177000C61904E0DDE90D121BF8010B90477F1E2E
:10178000F8D2214648468CE058F8040BC4F30251C5
:101790004FF00A0B032900D100B2042900D140B256
:1017A000002806DAC0F100004FF02D0104E082E0CD
:1017B0000DE0210504D52B218DF82410012103E033
:1017C000E10710D02021F7E708AF089114E058F89E
:1017D000040BC4F302514FF00A0B032900D180B26D
:1017E000042900D1C0B20021EEE75946FEF7E8FC1B
:1017F00001F1300107F8011D0028F6D1ADEB07001B
:1018000000F1200B600702D524F4803401E04FF092
:10181000010ADA4502DDAAEB0B0000E00020824657
:1018200000EB0B0108980144A9EB01000A90E003CA
:1018300006D4DDE90D2321460A9800F056F8064447
:10184000002008E009A911F80900DDE90D12904710
:10185000761C09F10100089981468842F2DBE00319
:101860000CD5DDE90D2321460A9800F03EF8064428
:1018700004E0DDE90D1230209047761CBAF100013A
:10188000AAF1010AF5DC05E0DDE90D1217F8010BFC
:101890009047761CBBF10001ABF1010BF4DC0A9818
:1018A0002146DDE90D2300F00DF806446D1C287873
:1018B00000287FF494AE0FB03046BDE8F08F0000F2
:1018C000092801002DE9F041044600251E4617466F
:1018D000880405D406E039462020B04705F101050B
:1018E000641EF8D52846BDE8F0812DE9F041044694
:1018F00000251E469046C80301D5302700E020276A
:10190000880405D506E041463846B04705F1010593
:10191000641EF8D52846BDE8F08100000146042980
:1019200001DB0020704701EB4100084A02EB800018
:101930004078012808D1002001EB4102034B03EB62
:10194000820250700120EDE70020EBE774100020C8
:1019500010B50120FFF735FE034804680020FFF7AB
:1019600030FE204610BD00000C000020704710B56E
:1019700000F064F800F016F810BD000010B5FEF796
:1019800047FCFEF7FFFC0020FEF79AFD0020FEF763
:1019900081FDFEF773FD4FF480500149088010BDB2
:1019A000181C024070B5002016E0002100EB400238
:1019B0001E4B03EB8202516000EB400203EB8202FC
:1019C000916000EB400203EB8202517000EB400299
:1019D00003F82210411CC8B20428E6DB1449096848
:1019E0004FF47A73B1FBF3F2511EB1F1807F00D353
:1019F0001BE0511E4FF0E023596159170F230029B6
:101A000007DA1C07260E0B4C01F00F052D1F66553B
:101A100003E01C07250E084C655400BF00214FF061
:101A2000E02399610721196100BF70BD7410002087
:101A30003000002018ED00E000E400E010B5FFF7F2
:101A400023FDFEF7D7FFFEF7C9FD10BD70477047B5
:101A5000416851B14168491E416006D10121417080
:101A60000178012901D181684160704770B5044651
:101A70000D46042C06DB124A12A11DA0FFF782FDC1
:101A800000BFFEE70120FFF79CFD04EB4400204966
:101A900001EB8000456004EB440001EB80008560B1
:101AA000002004EB44011A4A02EB81014870012036
:101AB00004EB440102F821000020FFF782FD70BD15
:101AC0008B1C00082E2E5C2E2E5C557365725C629A
:101AD00073705F73746D3332663478785C737263DD
:101AE0005C6273705F74696D65722E630000000044
:101AF0004572726F723A2066696C652025732C20DE
:101B000066756E6374696F6E20257328290D0A004F
:101B1000741000202DE9F04105460E461746284670
:101B2000FEF73AFD04460CB9BDE8F081E06908B162
:101B3000E06980473A4631462046FFF76BFC00BF1C
:101B4000F2E713B50446012201A92046FFF7E2FFA0
:101B50001CBD70B504460D46E1B20020FFF7F1FF51
:101B6000204670BD08B500240025FFF700FFFFF7F1
:101B700005FFFEF7E5FD4FF47A710120FFF776FFD0
:101B8000FEF7FCFC00BF31E0FFF7F0FE012C24D192
:101B90000024174800684FF47A7191FBF0F515485E
:101BA0000278417814A0FFF7EDFC1248008B0090FA
:101BB0001048C38A828A418A15A0FFF7E3FC0D48CA
:101BC000008C00900B48C38B828B418B1CA0FFF7CD
:101BD000D9FC294626A0FFF7D5FC0120FFF79EFE81
:101BE00020B1FEF7FDFBFEF7C9FC0124CCE70000A5
:101BF0001C0000204800002052616E6765203D20D7
:101C000025642C204F53203D2025642C200000000B
:101C1000434831203D202536642C20434832203D66
:101C2000202536642C20434833203D202536642C63
:101C300020434834203D202536642C20000000003D
:101C4000434835203D202536642C20434836203D2E
:101C5000202536642C20434837203D202536642C2F
:101C600020434838203D202536640D0A000000003E
:101C7000667265713D2025640D0A00006273705F15
:101C8000537461727454696D6572006273705F534E
:101C9000746172744175746F54696D65720062731A
:101CA000705F53746F7054696D657200CC1C0008CE
:101CB0000000002048000000A4150008141D0008C2
:101CC0004800002000710000B4150008000000006A
:101CD0000000000000000000000000000000000004
:101CE00000000000000000000000000000000000F4
:101CF000010203040102030406070809007A030A2B
:101D000000000000000000000102030406070809AB
:041D100000000000CF
:040000050800018965
:00000001FF
