:020000040800F2
:1000000090BB00209D0100089D180008C91600083B
:1000100099180008D9050008FD1F0008000000001D
:10002000000000000000000000000000E11A0008CD
:100030002506000800000000551900081D1C0008D6
:10004000B7010008B7010008B7010008B7010008B0
:10005000B7010008B7010008B7010008B7010008A0
:10006000B7010008B7010008B7010008B701000890
:10007000B7010008B7010008B7010008B701000880
:10008000B7010008B7010008B7010008B701000870
:10009000B7010008B7010008B701000809130008FC
:1000A000B7010008B7010008B7010008B701000850
:1000B000B7010008B7010008B7010008B701000840
:1000C000B7010008B7010008B7010008B701000830
:1000D000B7010008B7010008B7010008B701000820
:1000E000B7010008B7010008B7010008B701000810
:1000F000B7010008B7010008B7010008B701000800
:10010000B7010008B7010008B7010008B7010008EF
:10011000B7010008B7010008091D0008B701000871
:10012000B7010008B7010008B7010008B7010008CF
:10013000B7010008B7010008B7010008B7010008BF
:10014000B7010008B7010008B7010008B7010008AF
:10015000B7010008B7010008B7010008B70100089F
:10016000B7010008B7010008B7010008B70100088F
:10017000B7010008B7010008B7010008B70100087F
:10018000B7010008B7010008DFF80CD000F066F8EE
:1001900000480047FD42000890BB00200648804709
:1001A00006480047FEE7FEE7FEE7FEE7FEE7FEE75C
:1001B000FEE7FEE7FEE7FEE7A11C00088901000854
:1001C00040EA01039B0703D009E008C9121F08C0D9
:1001D000042AFAD203E011F8013B00F8013B521E59
:1001E000F9D27047D2B201E000F8012B491EFBD2D0
:1001F00070470022F6E710B513460A460446194632
:10020000FFF7F0FF204610BD421C10F8011B00292B
:10021000FBD1801A704730B504460020034600E049
:100220005B1C934203D2E05CCD5C401BF8D030BD38
:1002300030B50B46014600202022012409E021FAB6
:1002400002F59D4205D303FA02F5491B04FA02F5B3
:100250002844151EA2F10102F1DC30BD064C074D09
:1002600006E0E06840F0010394E807009847103486
:10027000AC42F6D3FFF78CFF3C8700085C87000890
:100280001CB50121084601F087FB0121582001F02F
:1002900063FB0C2200214F4801F0F0F90C220121F0
:1002A0004C4801F0EBF90C2204214A4801F0E6F930
:1002B0000C220521474801F0E1F90C2208214548AC
:1002C00001F0DCF90C220921424801F0D7F90C2297
:1002D0000A21404801F0D2F90C220E213D4801F0DC
:1002E000CDF90C220F213B4801F0C8F94CF23370D4
:1002F000009002208DF8040003208DF805000020F6
:100300008DF806008DF807006946324801F06EF955
:100310000C220721304801F0B1F90C2208212E48A7
:1003200001F0ACF90C2209212B4801F0A7F90C22AD
:100330000A21294801F0A2F90C220B21264801F0DC
:100340009DF90C221146244801F098F90C220D2148
:10035000214801F093F90C220E211F4801F08EF97B
:100360000C220F211C4801F089F94FF68070009093
:100370006946194801F03AF90C220A21174801F0A0
:100380007DF94FF4806000906946144801F02EF921
:100390000121322001F0E0FA01208DF80400032051
:1003A0008DF8050000208DF806008DF807003C2030
:1003B00000906946084801F019F90120009069464B
:1003C000074801F013F9402000906946054801F004
:1003D0000DF91CBD000C0240001002400018024044
:1003E000000402400014024000B597B003200190C1
:1003F0000020029006200390012004900020059028
:100400000690079004200890002009900A90102080
:100410000B9000200C900D900E900F9010904FF4C8
:1004200080501190002012901390149001A8159004
:10043000169008A801F048F80121042001F02AF8DC
:1004400017B000BD4FF0D0400088264948824FF0D9
:10045000D0400188234881824FF0D0400188214854
:10046000C1824FF0D04001881E4801834FF0D04038
:1004700001881C4841834FF0D0400188194881838E
:100480004FF0D04001881748C1834FF0D040018819
:10049000144801840020144908701EE011481230ED
:1004A0001149097810F811100F480078012202EB69
:1004B00040020C48801C815410300B49097830F8F8
:1004C00011000212084800780649891C01F8102022
:1004D00005480078401C0449087003480078082843
:1004E000DCDB7047B00100204800002010200449E8
:1004F0004883088308830883088348837047000083
:100500000020024030B90021064A51700121064AFC
:10051000118005E00121034A5170034A921E1180A7
:1005200070470000B00100201A04024023490870FF
:10053000072835D2DFE800F035040C141C242C0009
:1005400010211F4A5183082151830421118333E074
:1005500010211B4A518308211183042151832BE070
:100560001021174A5183082111830421118323E0AC
:100570001021134A118308215183042151831BE068
:1005800010210F4A1183082151830421118313E0A4
:1005900010210B4A118308211183042151830BE0A0
:1005A00000BF0021054A11701021054A518308211E
:1005B00051830421518300BF00BF7047B001002068
:1005C0000010024020200349488348834883088361
:1005D000704700000010024000BFFEE71CB501217B
:1005E000042001F0B9F94FF44070009001208DF81B
:1005F000040000208DF806008DF8070002208DF819
:1006000005006946064800F0F1FF4FF48071044888
:1006100001F057F84FF40071014801F052F81CBD89
:10062000000802407047000000B587B0012108466D
:1006300001F092F90121102001F0CEF907220A21E0
:100640001F4801F01BF8072209211D4801F016F888
:1006500000208DF81A0001208DF81B0002208DF873
:1006600018000002059002208DF8190005A9144811
:1006700000F0BCFF02208DF818004002059005A98B
:100680000F4800F0B3FF4FF4E13001900020ADF8C7
:100690000800ADF80A00ADF80C00ADF810000C2011
:1006A000ADF80E0001A9074801F03AFC0121054808
:1006B00001F01CFC4021034801F00FFC07B000BD15
:1006C000000002400010014010B500F059F900F0A0
:1006D000BBFB0121002000F0ADFC00F0040028B1BC
:1006E0000348006840F010000149086010BD000098
:1006F0006400002034480068006800F00040E8B959
:1007000031480068006800F48070B8B12F48006874
:100710008068401C2D49096888602C480068806802
:10072000012804D12848006828490968086026483B
:10073000006826490968486001207047224800681F
:10074000006800F00040F0B91F480068006800F43D
:100750000070C0B11C480068006800F4807090B957
:100760001948006819490968086000201749096894
:100770004860012015490968886013480068C0680E
:10078000114908601DE010480068006800F0004052
:10079000B8B90D480068006800F4007088B90A48CC
:1007A0000068006800F4807058B9084800688068E4
:1007B000401C06490968886003480068C06802490F
:1007C00008600020B9E700007000002074000020DD
:1007D00070B505460121002000F02CFC00F0040457
:1007E00044B10B48007828B90A4804F00DFA0120FA
:1007F000074908705CB90648007840B101200649F5
:100800000870044804F0EBF900200149087070BD3D
:1008100069000020240100206800002030B1074951
:10082000896941F00201054A916105E0034989693E
:1008300021F00201014A91617047000000900240DE
:1008400070B50C4613460021124D286000BF18E019
:1008500000EB41124FF00045156044F2F45555602D
:10086000C1EBC11505EB450504EB850595605D1EE3
:100870008D4204D900EB41152035D56000E0D060F1
:10088000491C9942E4D3044DE860044D044E3560A0
:1008900070BD00007000002000900240485300200E
:1008A0007400002030B10749896941F40051054ABC
:1008B000916105E00349896921F40051014A916180
:1008C000704700000090024030B50C4613460021EE
:1008D0000F4D286000BF15E000EB41124FF480156A
:1008E0001560C1EBC11505EB450504EB8505956069
:1008F0005D1E8D4204D900EB41152035D56000E026
:10090000D060491C9942E7D3024D286130BD0000F8
:100910006C0000200090024002680A4302607047A9
:1009200010B50121480601F027F800214FF00070B2
:1009300001F022F810BD01B581B0002000900198AF
:10094000009002E00098401E009000980028F9D125
:100950000CBD000008B5002000900848806940F4F4
:100960008010064988610846806900904FF6FF7044
:10097000FFF7E1FF01490098886108BD009002403F
:100980001CB50121452000F0E7FF0121880301F09B
:1009900023F8012001F0A6F80420009003208DF830
:1009A000050002208DF8040000208DF806000120CB
:1009B0008DF807006946324800F018FE0B2202212C
:1009C0002F4800F05BFE0220009069462D4800F0A1
:1009D0000DFE0B2201212B4800F050FE022000905A
:1009E0006946274800F002FE0B220121244800F04E
:1009F00045FE802000906946214800F0F7FD0B225B
:100A000007211F4800F03AFE1020009069461D485B
:100A100000F0ECFD0B2204211A4800F02FFE2020EC
:100A200000906946174800F0E1FD0B2205211548AA
:100A300000F024FE4FF4006000906946124800F078
:100A4000D5FD0B221146104800F018FE4FF400505F
:100A5000009069460C4800F0C9FD0B220D210A48A0
:100A600000F00CFE4FF4804000906946064800F00C
:100A7000BDFD0B220E21044800F000FE1CBD00004D
:100A80000000024000080240001802400020044913
:100A9000096801F0010109B1012000E00020704760
:100AA000009002401EB500210022009201920292A5
:100AB0000C4A12681268C2F30D42111F00910A4AD3
:100AC000126812680292084A1268126892680192CB
:100AD000044A1268D268034B1A609DE81C0080E843
:100AE0001C001EBD70000020740000202DE9F041A4
:100AF00088B004460F464FF00008002500200790FC
:100B0000B94E029001200190B848056925F01C05F6
:100B100003A800F071FF049EB548864205D3B5488E
:100B2000864202D245F008051AE0B248864205D353
:100B3000AD48864202D245F00C0511E0AA48864233
:100B400003D3AD48864200D20AE0AB48864205D3C3
:100B5000AA48864202D245F0040501E045F010059E
:100B6000A24805614FF400420021384600F01CFB0A
:100B700010B9002001906AE0A148FFF7DCFE206870
:100B8000002850D000BF0298401C02900121384636
:100B900000F050FA00F0040018B99A49029888420F
:100BA000F1D398490298884202D1002001904EE08A
:100BB000002002904FF480520021384600F0F4FAF1
:100BC00008B90020019000BF0298401C029001214A
:100BD000384600F02FFA00F0200018B98949029831
:100BE0008842F1D387490298884202D100200190BF
:100BF0002DE0002002901F21384600F01BFA8046AD
:100C000008F0100018B14FF40060206201E00020ED
:100C1000206208F0040010B10020606116E04FF47B
:100C20008040606112E0206AC0F3CF006169C1F3C7
:100C30004F0140EA01020021384600F0B5FA08B938
:100C4000002001906FF07F40FFF775FE00BF019814
:100C500020B94FF400602062C000606163480568FD
:100C600069480540D4E901010843E1680843216966
:100C7000084361690843A1690843E1690843216A9F
:100C80000843616A0843A16A0843E16A0843216B8B
:100C90000843616B084305435448056005684FF6F7
:100CA000FF70FFF748FE51480560D4E90E01084384
:100CB000216C0843616C0843A16C0843E16C084354
:100CC000216D0843616D08434849486008464568FE
:100CD0004FF6FF70FFF72FFE444845604349A06D73
:100CE0008860E06DC860084685694FF64170054030
:100CF000B4F86010606E40EA0140A16E0843E16EF6
:100D00000843216F0843616F0843054337488561F5
:100D100085694FF6FF70FFF70EFE34488561D4E910
:100D20001E0108433149C8610846C5694FF6FF7086
:100D3000FFF701FE2D48C5613448856934480540F8
:100D4000D4E920010843D4F888100843D4F88C1063
:100D50000843D4F890100843D4F894100843D4F80A
:100D600098100843D4F89C100843D4F8A010084306
:100D700005432648856185694FF6FF70FFF7DBFD67
:100D800022488561D4E929010843D4F8AC1008430E
:100D9000D4F8B0100843D4F8B41040EA8100D4F875
:100DA000B810084340F40000184908600846056878
:100DB0004FF6FF70FFF7BFFD14480560006840F074
:100DC000800012490860084605684FF6FF70FFF77B
:100DD000B2FD0E4805600198012802D108B0BDE8B7
:100DE000F0810020FAE700000087930300800240B2
:100DF000002D3101C00E160200E1F50580D1F0088A
:100E0000FFFF0F00FFFF04000F8120FF0090024052
:100E1000233FDEF810B50B794C7943EA0422094BE5
:100E200003441A64CB781B068C7843EA04434C785D
:100E300043EA04230C7843EA0402024B03445A6455
:100E400010BD00000080024010B501214FF060602D
:100E500000F082FDFFF764FD00F022F900BFFFF70C
:100E600015FE0128FBD01E4800F044F901201C4962
:100E700008600020C8614FF4007088620020C862DA
:100E800088634864C864086548654FF480604862B8
:100E90000020C1F880004FF00070C1F884000011FC
:100EA000C1F88C000020C1F89400C1F8980004201B
:100EB000C1F8A000C005C1F8A4004012C1F8A80004
:100EC0008001C1F8AC004012C1F8B0004000C1F888
:100ED000B80000210248FFF709FE0249086010BD72
:100EE000C41500206400002008B5014600200090D1
:100EF00031B10C48006840F004000A4A106005E077
:100F00000848006820F00400064A106005480068A0
:100F100000904FF6FF70FFF70EFD024A0098106038
:100F200008BD00000080024008B501460020009086
:100F300031B10C48006840F008000A4A106005E032
:100F40000848006820F00800064A1060054800685C
:100F500000904FF6FF70FFF7EEFC024A0098106019
:100F600008BD00000080024070B502460023002545
:100F700000242E480068006800F0004008B10020FE
:100F800070BD2A48016840F2F450824208DD92FBAD
:100F9000F0F392FBF0F600FB162010B15B1C00E0B2
:100FA0000123012B0CD1086840F040500860C2F3C7
:100FB0000C004860086840F000400860C96826E0FE
:100FC000002422E0086820F0405008601CB908683E
:100FD00040F08050086040F2F4504860581EA04233
:100FE0000DD1086840F000500860581EC0EBC010DA
:100FF00000EB4000A2EB8005C5F30C0048600868D8
:1010000040F000400860C968641C9C42DAD307487D
:1010100001600748406900F0040020B10420044E3C
:101020007061002070600120AAE700006C000020C1
:101030000090024018B502460B46002100200090A7
:101040001548016901F01C014FF4784000EAC22004
:1010500001434FF4F86000EA8310014321F00201DC
:1010600041F001010C48016100BF0098401C009054
:101070000948016901F0010018B1084C0098A0422C
:10108000F3D3064C0098A04201D1002018BD0248BD
:10109000406980B2FAE7000000800240FFFF0400D0
:1010A0000348006840F001000149086070470000F3
:1010B0000090024000B50120FFF736FF0120FFF746
:1010C00013FFFFF747FC0120FFF7ECFB0120FFF7C0
:1010D000A5FB00BD00B50020FFF7E4FB0020FFF7F3
:1010E0009DFB0020FFF700FFFFF734FC0020FFF717
:1010F0001BFF00BD01210160002141608160C160D2
:1011000001614FF48041416100218161C1614FF46F
:1011100000610162002141628162C1620163416339
:101120008163C16340210164202141640021816405
:10113000C164016541658165C165016680214166C3
:1011400000218166C166016741678167C1674FF011
:101150008061C0F880104910C0F884100021C0F8E8
:1011600088104FF40011C0F88C100021C0F89010C6
:10117000C0F89410C0F89810C0F89C10C0F8A010E7
:101180004FF00071C0F8A4104912C0F8A8108901EE
:10119000C0F8AC104912C0F8B0100021C0F8B4106B
:1011A000C0F8B8107047000038B503460C4600215F
:1011B000002000901448016901F01C014FF47840B0
:1011C00000EAC32001434FF4F86000EA84100143B1
:1011D00041F0020141F001010B484261016100BF91
:1011E0000098401C00900848016901F0010018B106
:1011F000064D0098A842F3D3044D0098A84201D1AF
:10120000002038BD0120FCE700800240FFFF040001
:101210007FB506460020039096F83100C0F3001019
:1012200000285DD031480068002843D0002003909A
:101230004FF4805200210846FFF7B6FF00BF039825
:10124000401C039001210020FFF7F4FE00F0200075
:1012500018B9274903988842F1D3002003901F2131
:10126000FFF7E8FE044604F0100020B14FF40060E0
:101270001E49086202E000201C49086204F00400D4
:1012800018B100201949486103E04FF48040174924
:10129000486118480568154840691449096A0843B7
:1012A0000543144805604FF6FF70FFF744FB1148F3
:1012B00005680560FFF7FEFE0F4802906FF07F4063
:1012C00001900E4800906B4601AA02A90C4803F059
:1012D00011FC0B4803F0C6FC00200A49087004E02A
:1012E000FFF7F8FE064803F01FFC7FBDC415002081
:1012F000FFFF040000800240C0A80117C0A8010140
:10130000240100206800002010B5802000F032F891
:10131000F8B101F053F80F490860084600880E49FB
:101320000988401A0D4908800A4800680A4908607F
:101330000A4800884FF47A7191FBF0F00849086080
:10134000084600780749087005F00CFE802000F080
:101350000BF810BD5C0000204C0000205000002065
:101360005400002058000020014908607047000028
:10137000143C014001460020034A12680A400AB1A9
:10138000012000E000207047143C01400021234967
:101390008279002A3AD00A46126803689A430B46BB
:1013A0001A600A1D126803689A430B1D1A600279BD
:1013B00011440A6803681A430A60184A083212681E
:1013C00003689A43154B08331A601A1D12680368A4
:1013D0009A43124B0C331A604279102A0ED11A1F0D
:1013E000126803681A430D4B08331A601A1D1268FD
:1013F00003681A43094B0C331A600DE00749427920
:1014000011440A6803681A430A6005E0027911442E
:101410000A6803689A430A6070470000003C014074
:101420001FB5002017490880174908600120174997
:1014300008700121202000F08FFA0121880300F0BC
:10144000CBFA00208DF804008DF807008020009072
:1014500069460F4800F0CAF80721052000F048FB54
:101460008020029000208DF80C0008208DF80D00DF
:1014700001208DF80E0002A8FFF788FF00F00FFA98
:101480001FBD0000500000204C000020580000202C
:101490000014024051B18200A2F1C042126842F031
:1014A00001038200A2F1C042136009E08200A2F1B0
:1014B000C0421268034B1A408300A3F1C0431A6074
:1014C00070470000FEFF0F0030B50021002200230E
:1014D0000468A400A4F1C0442168424C2140D0E932
:1014E00001452C43C5682C4305692C4345692C43B1
:1014F00085692C43C5692C43056A2C43456A2C43F6
:10150000856A2C43C56A2C43056B2C432143046830
:10151000A400A4F1C04421608468082C0BD10468A5
:10152000A400A4F1C044246844F040050468A40069
:10153000A4F1C04425600468641CA400A4F1C04464
:10154000226802F04042446B2468456B6D6844EAAF
:101550000514456BAD6844EA0524456BAD8944EA42
:101560000544456B2D8A44EA0554456B2D7D44EABC
:101570000564456BAD692C4322430468641CA400D8
:10158000A4F1C0442260C46AB4F5804F20D104683D
:10159000A400A4F1C044D4F80431134C2340846B5C
:1015A0002468856B6D6844EA0514856BAD6844EA70
:1015B0000524856BAD8944EA0544856BAD692C43F0
:1015C00023430468A400A4F1C044C4F8043107E034
:1015D0006FF070450468A400A4F1C044C4F804513D
:1015E00030BD00008000F7FF0000F0CFF0B50A46E4
:1015F00000210023002400BF3DE0012505FA01F38E
:10160000156805EA03049C4234D105684F0003269F
:10161000BE40B543056015794E00B54006683543B8
:1016200005601579012D02D01579022D16D1856836
:101630004F000326BE40B543856055794E00B54046
:10164000866835438560456801268E40B543456010
:10165000456896798E40B6B235434560C5684F00FF
:101660000326BE40B543C560D5794E00B540C66877
:101670003543C560491C1029BFD3F0BDF0B5002328
:1016800000244D07ED0E02FA05F3CE1000F12005FF
:1016900055F826504E07F70E0F26BE40B543CF1023
:1016A00000F1200646F82750CE1000F1200555F82D
:1016B000265045EA0304CE1000F1200545F82640E7
:1016C000F0BD01837047000002A000F099FC00BF4C
:1016D000FEE70000686172646661756C7421212107
:1016E0000A00000000B587B003F03AF803F082F971
:1016F000274806906FF07F400590264804902648C2
:101700002649002204ABCDE90021029005AA06A9D2
:10171000234803F0B7F9224803F000FA2148006893
:10172000112826D11E4890F8310040F010001C49C5
:1017300081F83100084603F095FA1BA000F060FC28
:1017400017200123A822C02100901CA000F058FC03
:101750000020FF231A46194600901DA000F050FCFF
:1017600001200346A822C02100901FA000F048FCE1
:1017700008E00B4803F0D8F921A000F041FC26A0B6
:1017800000F03EFC2A49064803F026FA07B000BDE7
:10179000C0A80117C0A80101713200082933000850
:1017A000240100206400002053746174696320499F
:1017B0005020616464726573730D0A0049503A20C9
:1017C00025642E25642E25642E25640D0A00000054
:1017D0004E45544D41534B3A2025642E25642E2509
:1017E000642E25640D0A0000476174657761793ABB
:1017F0002025642E25642E25642E25640D0A000004
:101800000A20204E6574776F726B204361626C65AD
:1018100020697320200D0A00202020206E6F742084
:10182000636F6E6E65637465642020200D0A00008E
:101830001112000801B5114900980968401AFA28E8
:1018400004D30E490098086006F078FA0C49009815
:101850000968401A41F28831884204D30849009847
:10186000086001F063FC074900980968401AB0F568
:101870007A7F02D30020FEF7ABFF08BD24000020D2
:10188000280000202C00002010B5024801F064FD63
:1018900010BD00002401002000BFFEE7704708B51E
:1018A0004FF4C06000F04CF817208DF800000020C5
:1018B0008DF801008DF8020001208DF803006846C4
:1018C00000F002F808BD000070B5002100230F22CF
:1018D000C4781CB3174C246804F4E064C4F5E064D5
:1018E000C4F30721C1F10404E3B20A4144789C40E7
:1018F000E1B28478144021430C07210E0E4C057888
:101900006155047804F01F050124AC4005786D1181
:10191000AD0005F1E025C5F8004109E0047804F0C8
:101920001F050124AC40054D0678761145F8264088
:1019300070BD00000CED00E000E400E080E100E09C
:1019400002490143024A1160704700000000FA0595
:101950000CED00E07047000029B1064A126802430E
:10196000044B1A6004E0034A12688243014B1A6078
:10197000704700003038024029B1064A126802431D
:10198000044B1A6004E0034A12688243014B1A6058
:10199000704700001038024029B1064A126802431D
:1019A000044B1A6004E0034A12688243014B1A6038
:1019B000704700003838024029B1064A12680243D5
:1019C000044B1A6004E0034A12688243014B1A6018
:1019D000704700004038024029B1064A12680243AD
:1019E000044B1A6004E0034A12688243014B1A60F8
:1019F0007047000044380240F0B500210022002466
:101A0000022500260223324F3F6807F00C0121B166
:101A1000042905D0082937D105E02E4F076036E0AC
:101A20002D4F076033E02A4F3F1F3F68C7F38056B2
:101A3000274F3F1F3F6807F03F036EB1264FB7FBAC
:101A4000F3F7DFF88CC0ACF1040CDCF800C0CCF389
:101A5000881C07FB0CF40CE01E4FB7FBF3F7DFF814
:101A600070C0ACF1040CDCF800C0CCF3881C07FBA0
:101A70000CF4174F3F1F3F68C7F301477F1C7D00E1
:101A8000B4FBF5F7076002E0124F076000BF00BF2C
:101A90000F4F3F6807F0F0010909104F7A5C0768A3
:101AA000D74047600A4F3F6807F4E051890A0B4F5F
:101AB0007A5C4768D7408760054F3F6807F460410C
:101AC000490B064F7A5C4768D740C760F0BD0000FD
:101AD000083802400024F40040787D011400002002
:101AE000704700000149086070470000DC00274291
:101AF00030B500228B071C0F0F2303FA04F20B4BA7
:101B00008C1053F824309343084C8D1044F8253042
:101B100023468C1053F824308C07240F00FA04F469
:101B20002343024C8D1044F8253030BD0838014065
:101B30000CB50020019000903448006840F48030DB
:101B40003249086000BF3148006800F4003000905E
:101B50000198401C0190009818B90198B0F5A04F69
:101B6000F1D12A48006800F4003010B10120009043
:101B700001E0002000900098012846D12348403021
:101B8000006840F0805021494031086020480068DA
:101B900040F440401E4908601C48083000681B495A
:101BA000083108600846006840F4004008600846B4
:101BB000006840F4A05008601648091F0860081F1C
:101BC000006840F08070091F086000BF0F4800687F
:101BD00000F000700028F9D040F205700E4908604E
:101BE0000A480830006820F00300084908310860FE
:101BF0000846006840F00200086000BF0348083053
:101C0000006800F00C000828F8D10CBD0038024034
:101C10000070004019544007003C024010B500F02D
:101C200001F810BD10B51948006840B117480068A8
:101C3000401E1649086010B901201549087000249B
:101C400008E004EB4401134A02EB810000F024FC9D
:101C5000601CC4B2042CF4DB0F480068401C0E4921
:101C60000860084600686FF00041884202D10020F9
:101C70000949086009480078401CC0B2074908704B
:101C80000A2801DB0020087010BD00007C00002045
:101C90008000002054530020840000208800002091
:101CA00010B51548006840F47000134908601348E7
:101CB000006840F001001149086000200F49083118
:101CC00008600E4800680E4908400C4908600D483D
:101CD000091D0860081F006820F48020091F0860A3
:101CE000002006490C310860FFF722FF4FF000602A
:101CF00001498039086010BD88ED00E000380240DD
:101D0000FFFFF6FE1030002410B50121184800F046
:101D100049F860B34FF0D040008816490880FEF7BC
:101D200051FC15480088401C13490880084600886B
:101D3000B0F5FA7F11DC0F4801780F4800880F4A90
:101D400002F810100B48008801120B48008801228D
:101D5000C2EB4000094A115405E0084806F028F893
:101D60000020054908800121014800F00CF810BD51
:101D7000001000406200002060000020DA11002006
:101D8000CA4302827047CA430282704721B1028867
:101D900042F00102028004E002884FF6FE731A400E
:101DA0000280704730B50246002000230024158AC7
:101DB00005EA0103958905EA010413B10CB101207C
:101DC00000E0002030BD1AB183890B43838102E01B
:101DD00083898B43838170470EB501211020FFF763
:101DE000EBFDF92001905320ADF80000694608484A
:101DF00000F010F801210648FFF7C2FF012211464A
:101E00000348FFF7E0FF01210148FFF7BFFF0EBDC8
:101E10000010004000220288184B98420ED0184B48
:101E200098420BD0B0F1804F08D0164B984205D0A5
:101E3000154B984202D0154B984204D14FF68F7340
:101E40001A404B881A43124B984207D0114B9842C4
:101E500004D04FF6FF431A400B891A4302804B68A7
:101E6000C3620B880385054B984202D0044B98420D
:101E700001D18B7A038601238382704700000140E1
:101E8000000401400004004000080040000C004035
:101E9000001000400014004010B500F009F8FFF7F2
:101EA0009BFF41200149087010BD0000DA1100209D
:101EB00008B54FF4E060FFF743FD36208DF80000D1
:101EC00000208DF8010003208DF8020001208DF81C
:101ED00003006846FFF7F8FC08BD01F40072B2F594
:101EE000007F00D100BFCA430280704721B18289C0
:101EF00042F40052828104E082894DF6FF731A4059
:101F00008281704702460020B1F5007F00D100BFFA
:101F100013880B400BB1012000E000207047000047
:101F20002DE9FF4705460E460024A14600BFA04606
:101F3000B08900B100BF2C8A24F44054F0880443D7
:101F40002C82AC8941F20C608443B088318908430B
:101F5000718908430443AC81AC8A24F44074B0898D
:101F60000443AC826846FFF747FD2048854202D013
:101F70001F48854202D1DDF80C9001E0DDF80890A1
:101F8000A88900F4004040B109EBC90000EB09103A
:101F900031684900B0FBF1F707E009EBC90000EB3D
:101FA000091031688900B0FBF1F76420B7FBF0F04D
:101FB00004012009642101FB1078A88900F4004085
:101FC00040B1322000EBC800B0FBF1F000F0070098
:101FD000044308E0322000EB08106421B0FBF1F06C
:101FE00000F00F0004432C81BDE8FF870010014082
:101FF00000140140C1F308028280704700BFFEE771
:102000000FB4054B10B503A9044A029800F01AF862
:1020100010BC5DF814FB0000853300081801002097
:1020200002E008C8121F08C1002AFAD170477047A1
:10203000002001E001C1121F002AFBD1704780F38C
:10204000108870472DE9FF4F8BB088460546002663
:1020500006E025280BD0DDE90D1290476D1C761C9B
:1020600028780028F5D10FB03046BDE8F08F002465
:10207000A146A2460122AE4900E0044315F8013F03
:10208000203B02FA03F00842F7D128782A2810D022
:102090006FF02F022878A0F13001092915D809EB3B
:1020A000890102EB410144F0020400EB01096D1CBF
:1020B000F0E758F8041B5FEA010903D544F4005423
:1020C000C9F1000944F002046D1C28782E2817D1AC
:1020D00015F8010F44F004042A280ED06FF02F02E7
:1020E0002878A0F1300109290AD80AEB8A0102EB0D
:1020F000410100EB010A6D1CF2E758F804AB6D1CBE
:1021000028786C280FD006DC4C2817D068280DD012
:102110006A2814D104E0742810D07A280FD10DE079
:1021200044F400140AE044F4801401E044F4401440
:102130006978814202D104F580146D1C6D1C2878E9
:10214000692865D006DC00288DD0632827D0642854
:1021500006D15DE06E2808D073282AD0752877D084
:10216000DDE90D129047761CE0E0C4F3025002282E
:1021700009D003280DD0D8F8001004280DD00E6027
:1021800008F10408D2E0D8F80010F217C1E90062A3
:10219000F6E7D8F800100E80F2E70E70F0E718F8B6
:1021A000041B8DF8001000208DF80100EB46012083
:1021B00003E058F804BB4FF0FF3061074FF0000711
:1021C00001D40AE07F1C57450DDA8742FADB1BF881
:1021D00007100029F6D106E07F1C8742FCDB1BF8C4
:1021E00007100029F8D1DDE90D23A9EB070081468E
:1021F000214600F0B1F83044C61904E0DDE90D12C3
:102200001BF8010B90477F1EF8D22146484688E014
:1022100058F8040BC4F302514FF00A0B032900D104
:1022200000B2042900D140B2002802DA40422D2138
:1022300002E0210505D52B218DF82410012104E0B1
:1022400006E0E10710D02021F6E708AF089113E07F
:1022500058F8040BC4F302514FF00A0B032900D1C4
:1022600080B2042900D1C0B20021EEE75946FDF743
:10227000DFFF303107F8011D0028F7D1ADEB070073
:1022800000F1200B600702D524F4803401E04FF008
:10229000010ADA4502DDAAEB0B0000E000208246CD
:1022A00000EB0B0108980144A9EB01000A90E00340
:1022B00006D4DDE90D2321460A9800F04DF80644C6
:1022C0004FF0000908E009A911F80900DDE90D1235
:1022D000904709F10109761C08998945F3DBE00371
:1022E0000CD5DDE90D2321460A9800F035F80644A7
:1022F00004E0DDE90D1230209047761CBAF10001B0
:10230000AAF1010AF5DC05E0DDE90D1217F8010B71
:102310009047761CBBF10001ABF1010BF4DC0A988D
:102320002146DDE90D2300F005F806446D1C97E613
:10233000092801002DE9F041044600251E461746F4
:10234000880404D405E039462020B0476D1C641E83
:10235000F9D52846BDE8F0812DE9F0410446002575
:102360001E469046C80301D5302700E02027880488
:1023700004D505E041463846B0476D1C641EF9D5CA
:102380002846BDE8F08100000146042901DB002059
:10239000704701EB4100084A02EB800040780128B9
:1023A00008D1002001EB4102034B03EB8202507085
:1023B0000120EDE70020EBE75453002010B5012089
:1023C000FFF73DFE034804680020FFF738FE204673
:1023D00010BD00008400002010B5FDF751FFFEF78E
:1023E00003F80220FEF7A2F80120FEF78BF8FEF7B3
:1023F0007DF820200149088310BD00000010024034
:1024000070B5002016E0002100EB40021E4B03EBEC
:102410008202516000EB400203EB8202916000EB0C
:10242000400203EB8202517000EB400203F82210DD
:10243000411CC8B20428E6DB144909684FF47A73DA
:10244000B1FBF3F2511EB1F1807F00D31BE0511EAE
:102450004FF0E023596159170F23002907DA1C07B1
:10246000260E0B4C01F00F052D1F665503E01C07CF
:10247000250E084C655400BF00214FF0E023996100
:102480000721196100BF70BD5453002000000020D7
:1024900018ED00E000E400E0416851B14168491ED8
:1024A000416031B9012141700178012901D1816870
:1024B0004160704770B504460D46042C06DB124A95
:1024C00012A11BA0FFF79CFD00BFFEE70120FFF754
:1024D000B6FD04EB44001E4901EB8000456004EBAF
:1024E000440001EB80008560002004EB4401184AA1
:1024F00002EB81014870012004EB440102F8210045
:102500000020FFF79CFD70BD198600082E2E5C2E62
:102510002E5C555345525C4273705C7379737469D9
:10252000636B5C6273705F74696D65722E6300002B
:102530004572726F723A2066696C652025732C2093
:1025400066756E6374696F6E20257328290D0A0005
:102550005453002070B504460D4600BF04B970BD49
:1025600000BF606A58B1606A007B082807D12868FC
:10257000616A496A884202D1204600F0A7F800BF8C
:10258000EDE700002DE9F04106460C46174600BF76
:102590001EB96FF00D00BDE8F08100BF00BF14B997
:1025A0006FF00500F7E700BF00BF00BF00BF00BF2E
:1025B00000224FF49A71104602F06FFB20612069EF
:1025C00010B94FF0FF30E6E700BF00BF607B20B9D5
:1025D0003C480068401C3B4908603A48006820605D
:1025E0002069406860610120616908706169487014
:1025F00096F82A006169887000206169C8702068B7
:1026000001F02EFE616948600020616908816169FE
:1026100048816169C860082F09D0042F07D0032FB3
:1026200008D1207B052802D0207B042802D17068C5
:102630006169C86000206169086161694861616918
:10264000886100250DE096F82A00A84203DD06F116
:102650002B00405D00E0002061691C314855681C7A
:1026600085B2102DEFD3002505E0002160692C30E4
:102670004155681C85B2402DF7D3002505E00021A7
:1026800060696C304155681C85B2802DF7D30E48C7
:102690006169C1F8EC0000202083002504E0606936
:1026A000F0304555681C85B2442DF8D30122352100
:1026B000204600F0EBF83946204600F0F7F80020FD
:1026C00069E70000A8000020638253632DE9F84306
:1026D00005466C6A00260C21204600F099F9042278
:1026E00021462846FFF74EFF0646FEB90422322156
:1026F000204600F0CBF8606A01F0C5FD80464146F7
:10270000204600F0DCF8204600F00BF9228BF03276
:1027100091B2206902F01BFD009543230B4A216909
:10272000606805F00BFF204600F012F8607B401C4B
:10273000607342F2107707F2F3104FF4FA7190FBD6
:10274000F1F060833046BDE8F88300004086000861
:1027500010B5044600BF04B910BD00BF00BF00BFE4
:1027600000BF00BF206910B1206902F06EFC00209C
:102770002061606100BFEFE7F8B505466C6A00268E
:10278000002060620621204600F042F90122214625
:102790002846FFF7F7FE0646002E30D102223921E7
:1027A000204600F073F8298D204600F0A9F8042295
:1027B0003721204600F06AF80121204600F076F823
:1027C0000321204600F072F81C21204600F06EF82C
:1027D0000621204600F06AF8204600F0A2F8228B7D
:1027E000F03291B2206902F0B2FC00954323124A04
:1027F0002169606805F0A2FE2046FFF7A9FF607B13
:10280000401C6073607B062803DA617B01208840EE
:1028100000E03C2000EB4001C1EBC0104FF6FF711F
:1028200001EAC00707F2F3104FF4FA7190FBF1F0E0
:1028300060833046F8BD00004086000870B505464C
:102840006C6A04B970BD207B042809D003DC98B100
:10285000032812D107E0052803D00A280DD101E092
:1028600000BF00BF00BF284602F05EF90020607381
:10287000284600F079F806E005E00020607328465D
:10288000FFF77AFF00BF00BF00BFDBE710B500BF56
:1028900000BF048B631C03834369F0331955048B19
:1028A000631C03834369F0331A5510BD00BF00BF9A
:1028B000038B5A1C02834269F032D154704710B521
:1028C00000BF00BF0B0E048B621C02834269F03212
:1028D0001355C1F30743048B621C02834269F03233
:1028E0001355C1F30723048B621C02834269F03243
:1028F0001355048B621C02834269F032115510BDDE
:1029000010B500BF00BF0B0A048B621C0283426932
:10291000F0321355048B621C02834269F032115568
:1029200010BD00BF00B9704700BF00BF00BF00BFAF
:1029300000BFFF22038B591C01834169F031CA5447
:1029400006E00022038B591C01834169F031CA540F
:10295000018B442903D3017E01F0030111B1018BE6
:102960004429EED300BFDEE72DE9F84305466C6A43
:102970000321204600F04CF8032221462846FFF7A9
:1029800001FE06464EBB022239212046FFF77EFF9C
:102990004FF410712046FFF7B3FF04223221204686
:1029A000FFF774FF606A01F06EFC804641462046E6
:1029B000FFF785FF2046FFF7B4FF228BF03291B27C
:1029C000206902F0C4FB00954323104A2169606826
:1029D00005F0B4FD2046FFF7BBFE607B401C607332
:1029E000607B0A2805DA607B4FF47A7110FB01F0F6
:1029F00001E042F2107087B207F2F3104FF4FA715F
:102A000090FBF1F060833046BDE8F8834086000813
:102A1000027B8A4203D001730022427342837047D3
:102A20002DE9FC4705468846164600BF0DB9BDE8AE
:102A3000FC8700BF70892A2803DA304602F005FBC4
:102A4000F5E7776807F10E042088B0F5807F08D19C
:102A50002079062805D16079042802D160880828E9
:102A600003D0304602F0F1FAE1E7D4F80E0001900D
:102A7000A0690090281D08B1686810B94FF00009DE
:102A800007E000986968884201D1012000E0002039
:102A90008146B9F1000F01D0012000E00220034679
:102AA00004F1080201A9284600F086FBE088B0F591
:102AB000807F03D0B0F5007F31D12BE0B9F1000F5A
:102AC00026D0022001F0D9FBE080D4F80E00A061EE
:102AD0006868C4F80E0000BF00BFA068C4F8120008
:102AE000A089E082A0683860A089B880D8F800008A
:102AF000A060B8F80400A081D8F80000C7F806006C
:102B0000B8F80400788131462846AA69904700E069
:102B100000BF05E001A92846FFF71CFD00E000BF4B
:102B200000BF304602F091FA00BF80E770B505465D
:102B3000002412E004EB8400094901EB8000867C4C
:102B40004EB104EB840001EB80008068A84202D102
:102B5000204600F0B7F8601CC4B20A2CEADB70BD56
:102B6000C8B400202DE9FC5F05460F464FF00A0867
:102B7000C1460A260024A34600200190B2460090D8
:102B800000BF5CE004EB84004D4A02EB8000817CD6
:102B90000A2E02D109B966B24FE000294DD000BF1C
:102BA00000BF5DB104EB8402454B03EB8202286851
:102BB0005268904202D160B2BDE8FC9F012928D141
:102BC00004EB84003E4A52F8200088B104EB8400F4
:102BD00002EB8000C27C009882422EDB4FFA84FA1E
:102BE00004EB8400364A02EB8000C07C009024E0B5
:102BF00004EB8400324A02EB8000C07C58451CDBA9
:102C00004FFA84F804EB840002EB800090F813B0D4
:102C100013E0022911DB04EB8400294A02EB800057
:102C2000C27C0198824208DB4FFA84F904EB8400ED
:102C3000234A02EB8000C07C0190601CC4B20A2CC5
:102C4000A0DB07F0020020B90A2E05D107F0010031
:102C500010B94FF0FF30AFE70A2E01DAF4B21AE0F4
:102C6000B9F10A0F03DA09F0FF0400BF0EE0B8F172
:102C70000A0F02DA08F0FF0408E0BAF10A0F02DADC
:102C80000AF0FF0402E04FF0FF3095E700BF00BFFD
:102C9000204600F017F800BF00BF00BF00BF35B1ED
:102CA00004EB8401064A02EB810128684860002099
:102CB00004EB8401024A02EB8101C87460B27BE735
:102CC000C8B4002010B5044604EB84000C4951F848
:102CD000200060B104EB8401094A52F8210002F09F
:102CE000B4F9002004EB8401054A42F821000020D9
:102CF00004EB8401024A02EB8101887410BD0000DC
:102D0000C8B400202DE9FC4704460F461546A946E5
:102D100000BF00BF00BF00BF00BF00BF0E2138468C
:102D200002F0D6F918B16FF00100BDE8FC8721462A
:102D3000286800F08FFC10B1DFF8048177E0287874
:102D400000F0F000E02815D101208DF800000020EF
:102D50008DF801005E208DF80200687800F07F0099
:102D60008DF80300A8788DF80400E8788DF8050048
:102D7000E8465BE02868A1680840D4E901121140E8
:102D8000884210D0288880B24FF6A96188420AD0C4
:102D900004F10C0020B1E06810B104F10C0902E06C
:102DA0006FF00300C1E72748007800EB8000264958
:102DB00001EB8000807C022812DB2249097801EBBC
:102DC0008101214A02EB8101D9F80000496888425B
:102DD00006D11C4802783946204600F037F8A4E7AF
:102DE00000261BE006EB8600174901EB8000807C83
:102DF000022811DB06EB8601134A02EB8101D9F8A8
:102E000000004968884207D10E490E70F2B2394677
:102E1000204600F01BF888E7701C46B20A2EE1DB62
:102E20003A464946204600F047F87EE700BF434651
:102E300004F12B023946204600F05CF975E70000EA
:102E4000B886000814010020C8B4002070B50546FB
:102E50000E46144600BF00BF04EB8400154901EB89
:102E60008000807C022817D104EB840001EB8000F5
:102E7000C07CE42810DB04EB84000A4602EB8000EF
:102E8000011D284600F020F930B9032004EB84012D
:102E9000084A02EB8101887404EB8400054901EBC8
:102EA000800000F10C0305F12B023146284600F0AA
:102EB00021F970BDC8B400202DE9F05F80460E46B0
:102EC000174608F12B094FF0FF3A4146306800F0F1
:102ED000C1FB38B9307800F0F000E02802D00EB124
:102EE000306818B96FF00D00BDE8F09F0121304641
:102EF000FFF738FE0446002C01DA2046F4E704EB25
:102F00008400424901EB8000807C30B9012004EB51
:102F100084013E4A02EB8101887400BF00BF04EBCC
:102F200084003A4901EB8000807C012800D03FB941
:102F30003146404600F0C8F882460FB95046D3E704
:102F400000BF00BF04EB8400304901EB8000807CAF
:102F500002280FDB2E490C7004EB84002B4901EB97
:102F6000800000F10C034A463946404600F0C2F8A2
:102F7000824648E004EB8400244901EB8000807C19
:102F8000012840D14FF0000B3D4608E000BF00BFD4
:102F9000287B012802D04FF0010B02E02D68002DA4
:102FA000F4D100BFBBF1000F10D02989002203200B
:102FB00001F073FE05466DB13946284601F09CFFCD
:102FC00040B1284602F041F8002503E03D4628467E
:102FD00002F0F9F8A5B104EB84000C4951F8200087
:102FE00030B104EB8401094A52F8210002F02DF8B7
:102FF00004EB8400054941F820504FF0000A01E03D
:103000004FF0FF3A00BF50466EE70000C8B4002002
:10301000140100202DE9F84F0746884691469A464C
:10302000DDF828B00020009000BF00BF00222A2158
:10303000032001F032FE05461DB94FF0FF30BDE818
:10304000F88F00BF00BF6E6806F10E040D9801F006
:1030500014F9E08000BF00BFDAF80000A060BAF801
:103060000400A0810B980168C4F812108088E082E7
:10307000D9F800003060B9F80400B080D8F800003A
:10308000C6F80600B8F804007081DBF80000C4F848
:103090000E000C980068A0614FF48070208008201A
:1030A000608006202071042060714FF4C160B081FF
:1030B00029463846BA6990470090284601F0C5FF76
:1030C00000250098BBE700007FB504460D460121AE
:1030D000064A201D04F12B038DE825000391044AC4
:1030E00019462046FFF796FF04B070BDBE86000863
:1030F000B88600082DE9F04105460E461746984669
:10310000746800BF00BFD8F800002060B8F8040061
:10311000A0803868C4F80600B88860810820A081C3
:1031200031462846AA699047BDE8F08170B5002471
:103130003DE004EB84001F4901EB8000857C25B352
:1031400004EB840001EB8000C07C401C04EB840194
:10315000184A02EB8101C87404EB8400114601EBAC
:103160008000C07CF0280DDA04EB840001EB8000C5
:10317000807C01280AD104EB840001EB8000C07C34
:10318000022803DB2046FFF79DFD0EE004EB8400E0
:10319000084901EB8000807C032806D1022004EB63
:1031A0008401044A02EB81018874601CC4B20A2CB9
:1031B000BFDB70BDC8B400202DE9F04706460D46C0
:1031C0001746984600BF00BF5DB1286848B1314638
:1031D000286800F03FFA20B9287800F0F000E028D5
:1031E00003D16FF00D00BDE8F08741462846FFF798
:1031F000B9FC0446002C01DA2046F4E7022004EB77
:1032000084011A4A02EB8101887404EB84001146A0
:1032100001EB8000866004EB840001EB80003968DC
:10322000C160B9880182002004EB840102EB8101B6
:10323000C87404EB8400114651F8200098B104EBE7
:10324000840051F82090002004EB840142F8210012
:103250003B4606F12B0249463046FFF74BFF4846F6
:1032600001F0F3FE00BF0020BDE70000C8B400205D
:103270002DE9F04104460E464FF00E0860890E28F5
:1032800000DC49E06568AF89287800F00100B0B142
:103290002878012809D1687888B9A8785E280ED1E5
:1032A000607B40F01000607309E006221D4928464B
:1032B000FCF7B1FF18B9607B40F008006073082F7D
:1032C00003D0B7F5C16F22D114E096F8310000F0B9
:1032D000200000B920E0C8F1000001B2204601F052
:1032E000F7FE10B100BF00BF16E03146204600F0E7
:1032F000BDFA0DE096F8310000F0200000B90BE0B7
:10330000224606F12B013046FFF78AFB00E003E07E
:1033100000BF0020BDE8F081204601F096FE0020AD
:10332000F8E70000B886000810B5044600BF00BFEB
:10333000732084F832007421332001550448606101
:103340000448A061204600F06BFE002010BD000084
:10335000052D00088141000870B50446204600F0A4
:103360009FFE064616B94FF0FF3070BD214630462D
:1033700022699047054615B1304601F066FE2846A1
:10338000F3E7000070B504460D46E1B20548FEF7CC
:1033900031FE00BF80210348FEF7B4FD0028F9D0BC
:1033A000204670BD0010014010B5002821D0114BFF
:1033B0000022001F196803E0814203D80A464968C9
:1033C0000029F9D152B11368841A9C4204D10068D3
:1033D00018441060104602E0506000E0186039B1F7
:1033E00002680B1A934203D10B681A4402604968C1
:1033F000416010BD1C01002070B505460C462246F8
:103400000321284600F0B0F870BD00002DE9FE4F02
:10341000044689466568287800074FEA9068C8F135
:103420000001204601F054FE10B92089042800D282
:103430008DE0606890F800A0BAF1000F03D0BAF1F7
:10344000080F7ED100E07DE001264548007800F0BD
:10345000F000E02800D1002641490868494600F004
:10346000F9F800B1002626B9204601F0EEFDBDE8CE
:10347000FE8F2089082800D269E0204600F0BFF8BE
:1034800018B1204601F0E1FDF1E72221204601F0CC
:103490001FFE48B34146204601F01AFE10B100BF9E
:1034A00000BF58E021890022022001F0F6FB064609
:1034B00006B950E000BF00BF2146304601F01CFDB8
:1034C00010B100BF00BF46E07568C8F1000001B24E
:1034D000304601F0FDFD10B100BF00BF3BE02046CB
:1034E00001F0B3FD344608E06FF02101204601F001
:1034F000EFFD10B100BF00BF2DE0676818480068FD
:10350000E860184800682861002038707880FF2043
:103510002872002068814146204601F0D9FD10B193
:1035200000BF0DE00DE001200021FF230A46CDE998
:10353000010900910A49204600F090FA064600BFB2
:1035400000E000BF00BF204601F07FFD8FE720466E
:1035500001F07BFD8BE7204601F077FD00BF86E799
:1035600098000020940000202DE9FE4306460F46F7
:10357000904600222421012001F08FFB05460DB961
:10358000BDE8FE8300BF00BFD6F804906C682770CA
:1035900084F801800020A080E08071686A6802F1F0
:1035A00008001C22FCF70CFE002060806989204680
:1035B00000F01BF86080D9F80C0002900120002177
:1035C000FF2302AACDE90010284600F02BFA284676
:1035D00001F03BFD00BFD3E770B505460C4622461F
:1035E0000B212846FFF7C0FF70BD70B504460D469D
:1035F0002946204600F053FEC04380B270BD2DE93D
:10360000F041064600240027354617E069896868BE
:1036100000F045FE0444A0B200EB1444688900EBBE
:10362000D0714910A0EB410139B1C7F10100C7B217
:10363000E0B2C4F3072141EA00242D68002DE5D152
:1036400027B1E0B2C4F3072141EA0024E04380B28D
:10365000BDE8F08118B502460092D04300B10AB926
:10366000012018BD91F8310000F0020008B90020D7
:10367000F7E74868904201D10020F2E700988B6894
:103680001840D1E901342340984208D1886822EAE1
:1036900000008C68E343984201D10120E1E700205B
:1036A000DFE700002DE9F74F8CB004468946B9F8F2
:1036B00028000890142004904FF0000860680B90D8
:1036C0000B9EF08800F0E5FD03900398C0F30C001A
:1036D0000790039800F4005006902089143880B2B7
:1036E00009900899A1F11400C11700EB5171C1F3C1
:1036F000CF010A91A4E0089814380999884201DBA7
:10370000012000E0002005900798C0F30C00069906
:1037100008430390059818B9039840F400500390AB
:10372000059808B1099801E00A98C0001FFA80FBCB
:1037300000221421022001F0B0FA054625B94FF00D
:10374000FF300FB0BDE8F08F00BF00BF14226868E3
:103750000B99FCF735FD6E68616804980844606059
:1037600061890498081A6081CDF808B03FE061894A
:103770000298814201DD029800E060898046B8F13C
:10378000000F01D1246832E000F062F807462FB93B
:10379000284601F05AFC4FF0FF30D2E760683B4604
:1037A00002224146CDE90008032001F03FFB82469A
:1037B000BAF1000F08D1384600F04FF8284601F062
:1037C00044FC4FF0FF30BCE7204601F0FCFC7C617C
:1037D0001E4838615146284601F05EFB0298A0EB76
:1037E000080080B20290029800B1246800BF0298DD
:1037F0000028BCD1CDF81080039800F03EFDF08089
:103800000BF1140188B200F038FD70800020708147
:1038100014213046FFF7E9FE7081D9F814302946AB
:1038200048460E9A9847284601F00FFC0998A0EBED
:103830000B0080B209900A990798084480B207905B
:10384000099800287FF457AF00BF7AE701400008CD
:1038500010B5062001F000F910BD10B5044600BFF8
:1038600000BF2146062001F0B5F810BD2DE9F05F3C
:1038700006460F464FF0010A756828780421B1EB1F
:10388000201F05D0304601F0E0FB0020BDE8F09F8E
:10389000287800F00F084FF6FF7000EA8808688863
:1038A00000F0F7FC81467089404502DB30894845CD
:1038B00004DA304601F0C9FB0020E7E7494630460C
:1038C00001F045FC286952490860E86851490860E0
:1038D0004FF0010B3C4600BF94F8310000F00100AE
:1038E00078B1201D68B1606858B1494800686168C6
:1038F000884205D0464908682146FFF7ABFE00B173
:103900000DE0BBF1000F04D04FF0000B42480468FB
:1039100000E02468BC4200D12468002CDCD100BF48
:1039200064B9687A112809D105EB08004188B1F51E
:10393000884F02D13C464FF0000A00BFBAF1000F99
:1039400013D03448006880B1324908683946FFF71F
:1039500081FE28B92F48007800F0F000E02804D15B
:10396000304601F072FB002090E724B9304601F0A8
:103970006CFB00208AE7E8884FF63F71084038B1B9
:10398000304600F0CDF806460EB900207EE7756897
:1039900022480760224805603946304601F096FC0F
:1039A00058BB687A01280DD0062806D011280ED100
:1039B0003946304604F0AEFC1EE03946304602F08F
:1039C000B1F919E039463046FFF720FD14E01049FF
:1039D00008683946FFF73EFE50B90D48007800F000
:1039E000F000E02804D0756002213046FFF704FDA6
:1039F000304601F02AFB00BF00BF002007490860E5
:103A000007490860034908600149086000BF3DE7B5
:103A10009800002094000020B80000208C000020B6
:103A2000900000202DE9FE4F06460F4615469846A9
:103A3000DDE90C9A00BF00BF284600F0B7FA040089
:103A400002D1001FBDE8FE8F43462A463946304664
:103A5000CDE9009A029400F001F8F3E72DE9F84F60
:103A600005460F4690469A46DDF828B00C9E00BFEA
:103A700000BFB8F1000F3BD04FF0140914212846C5
:103A800001F026FB18B16FF00100BDE8F88F6C68FB
:103A900000BF00BF84F808A00B986072D8F800003F
:103AA000206148464FEAE97109EB9171C1F3870142
:103AB00041F04001217084F801B0288900F0DDFB5D
:103AC00060800020E0801548008800F0D6FBA080D0
:103AD00012480088401C114908800FB1386810B99D
:103AE0007068E06001E03868E0600020608103E019
:103AF0006C6820690090E846308D48B12889318D86
:103B0000884205DD424631462846FFF7CBFDBCE73B
:103B100042462946304673699847B6E79C00002024
:103B20002DE9F84F804600200090D8F804502878FE
:103B300000F00F001421B1EB800F00D0ACE0E8885A
:103B400000F0A7FBC0F30C004FF6FF7101EAC00ABA
:103B5000688800F09EFB297801F00F01A0EB81003E
:103B60001FFA80FB404601F0BEF906464D48018829
:103B700088190A280ADD3146284600F0D9F920B113
:103B80004848008830440A2800DD85E0464804683B
:103B900012E06069E968884209D1A0692969884210
:103BA00005D1A089A988884201D1012000E0002028
:103BB00000B103E000942468002CEAD100BF34B9BE
:103BC0003146284600F03AF9044694B964E0E888A2
:103BD00000F05FFBC0F30C0058B9E08900F059FB1E
:103BE000C0F30C0028B11422294604F10800FCF7A8
:103BF000E7FA2C48008830442A490880A87900F068
:103C0000200030B9A07F40F00100A0770AEB0B0044
:103C1000A0834146204600F049F8D0B3A08B143071
:103C2000A08360684068076860684568142204F1F2
:103C300008012846FCF7C4FAA08B00F01EFB688040
:103C40000020E880688114212846FFF7CEFC6881B7
:103C5000D4F804800CE0D7F804906FF013013846D4
:103C600001F036FA3946404601F016F9D9F80070ED
:103C7000002FF0D12046009900F0CAF8404601F02C
:103C800032F908490988081A064908804046BDE803
:103C9000F88FFFE70020FAE7404601F0D6F9002050
:103CA000F5E70000A4000020A00000202DE9FC5F43
:103CB00081460E4600254FF0010BD6F804A0BAF855
:103CC000020000F0E6FA9AF8001001F00F01A0EBF4
:103CD000810080B20090BAF8060000F0DAFAC0F372
:103CE0000C004FF6FF7101EAC000019000BF00BF59
:103CF0007468002020600198A080DDE9001008446D
:103D0000E080D9F804802AE0D8F80470A088B98847
:103D1000884210DAC4F8008055B1A088E98888424A
:103D200003DBE088B988884200DD62E02E6001E0B4
:103D3000C9F8046016E0A088B988884200D158E02C
:103D4000A088F988884200DA53E02DB1E888B98864
:103D5000884201D04FF0000BD7F800803D46B8F103
:103D6000000FD1D100BFB8F1000F0ED14DB100BF8F
:103D700000BF2E60E888A188884206D04FF0000B73
:103D800003E000BF00BFC9F8046099F81E0000F00E
:103D9000010060B3BBF1000F26D0D9F804004068E1
:103DA000808810B14FF0000B1EE02546D4F800804B
:103DB0000BE0D8F80440E888A188884202D04FF090
:103DC000000B05E02546D4F80080B8F1000FF0D1D3
:103DD00000BFBBF1000F07D000BF00BF00BF00BF96
:103DE00000BF00BF00BF00BF5846BDE8FC9F0020D9
:103DF000FBE7304601F077F804490988081A0349BF
:103E00000880304601F021F90020EEE7A4000020F0
:103E100070B504460D4608480068A04203D1064923
:103E20002068086003E000BF00BF206828602146CA
:103E3000052000F0CFFD70BDA000002070B5054644
:103E40000E46052000F008FE044664B931462846B7
:103E500000F06EF8B04203DB052000F0FDFD0446E3
:103E60000CB9002070BD20212046FCF7C2F90320C8
:103E7000E077064800682060044804601422294660
:103E800004F10800FCF79CF92046EBE7A0000020B5
:103E90002DE9F04704468946002600BF00BFB9F16E
:103EA000000F01D000BF00BF6068D0F80480B8F8F0
:103EB0000400C0B96568D8F800006060142204F1FD
:103EC00008016868FCF77CF901212846FFF784FBAC
:103ED000284601F008F8074600BF00BFF01986B277
:103EE000284601F0B2F8656810E0D5F80480AA46CB
:103EF000D8F80050504600F0F6FF074600BF00BF5C
:103F0000F01986B2504601F0A0F800BF002DECD1A8
:103F100049462046FFF77CFF00BF00BF03480088EA
:103F2000801B024908803046BDE8F087A4000020CD
:103F30002DE9F05F05468946002700BF0026B346FD
:103F4000B246194804681DE06069E968884207D1F3
:103F5000A0692969884203D1A089A988884201D033
:103F6000012000E0002048B10AF1010A0EB92646FE
:103F700004E0E07FF17F884200DC2646206800B143
:103F8000A3462468002CDFD12EB159463046FFF7F6
:103F90007FFF804647444F4502DABAF1010FCDDC7E
:103FA0003846BDE8F09F0000A000002010B5024692
:103FB000114801680FE091F8310000F0010048B1AC
:103FC00010688B681840D1E901342340984201D130
:103FD000084610BD09680029EDD10848006830B1D5
:103FE0000648006890F8310000F0010008B9002090
:103FF000EFE702480068ECE7B8000020BC000020B2
:1040000070B505462C4600BF00BF00BF00BF606909
:1040100010B1606901F019F82046FFF71EFC70BD71
:1040200070B50446062084F82A00022084F82B008C
:1040300000212C2001552D2001552E2001552F2027
:1040400001553020015504F12B010020FCF7E2FE60
:1040500040F2DC502085222084F8310005220C49F2
:104060000C48FCF731FC05220B490C48FCF7E8FB37
:10407000002507E0074901EB45104FF44001FCF72C
:104080004BFC6D1C052DF5DBFDF714F870BD000031
:104090008435002020170020C01700208016002043
:1040A0002DE9F04F87B00024A1460027A3466846BB
:1040B000FCF7F8FC9DE8070003AB07C303980690E4
:1040C000DDF810A0069881B20322104600F0E5FD4D
:1040D0008046B8F1000F2ED0059E00BF454628E06F
:1040E0006F894FF0000915E040F2F4531A1B0AEBF8
:1040F00004016B6803EB0900FCF762F8F668D6F878
:1041000008A040F2F450001B3F1A40F2F450001B8C
:1041100081440024381940F2F4518842E4D80AEB73
:1041200004016A6802EB09003A46FCF749F83C448E
:104130002D68002DD4D1059E4FF0000B05E04FF007
:1041400000403060F6680BF1010B0B480068806896
:104150005845F4D800200849096888600748406934
:1041600000F0800020B18020044948610020886070
:10417000404607B0BDE8F08F740000200090024078
:104180002DE9F84F8B4634480068806800904FF066
:10419000000900240026A2462F48D0F8008000BF66
:1041A0005D4644E0D8F8000000F0004010B16FF028
:1041B000010743E06E894FF0000A25E040F2F45316
:1041C0001A1B6B6803EB0A01009B1819FBF7F8FF39
:1041D000D8F80C80D8F8000000F0004010B16FF063
:1041E00007072BE0D8F80800009040F2F450001BBD
:1041F000361A40F2F450001B824440F2F450001B87
:1042000048441FFA80F90024301940F2F4518842E2
:10421000D4D86A6802EB0A01009A10193246FBF7FB
:10422000CFFF344409EB06001FFA80F92D68002DFA
:10423000B8D14846FCF798FE002700BF0748406900
:1042400000F0200020B1202004494861002048608F
:104250003846BDE8F88F00006C0000200090024056
:104260000146080601F47F4240EA022001F47F0281
:1042700040EA122040EA1160704701460806000C2F
:1042800040EA1120704700B503461846FFF7E8FFE3
:1042900000BD00B502461046FFF7EFFF00BDF8B5C0
:1042A00005460A462B4600200090002103F0010637
:1042B00036B1002A04DD13F8010B8DF80100521EFF
:1042C0001C4603E034F8027B3944921E012AF9DCD3
:1042D000002A02DD20788DF80000BDF800000144BE
:1042E00088B200EB114188B200EB114126B1C8B28F
:1042F000C1F3072747EA002188B2F8BD1CB5FCF7D7
:1043000093F9FEF77DF8FEF767F8FCF7EFF8FCF796
:1043100065F951A0FDF774FE59A0FDF771FEFCF799
:10432000D3F95EA0FDF76CFEFDF7DCF91720012341
:10433000A822C021009064A0FDF762FE4FF47A70BD
:1043400005210123A822CDE90010C02165A0FDF7B9
:1043500057FE4FF47A710120FEF7ACF869480078F7
:1043600050B96948007838B901F08EFA67A0FDF7B6
:1043700047FE012063490870FDF752F8FDF78CFDF8
:1043800068E00120FEF700F868B1FCF75BF8FCF785
:1043900019F96448018864A0FDF732FE01206449E0
:1043A000087003F02DFC62480078012849D161486B
:1043B0000278417860A0FDF723FE5E48008B0090F4
:1043C0005C48C38A828A418A61A0FDF719FE594878
:1043D000008C00905748C38B828B418B68A0FDF7FF
:1043E0000FFE54484079009052480379C278817892
:1043F0006FA0FDF705FE4F48407A00904D48037AC4
:10440000C279817978A0FDF7FBFD4A48407B009096
:104410004848037BC27A817A81A0FDF7F1FD4548C7
:10442000407C00904348037CC27B817B8AA0FDF7DF
:10443000E7FD9748017897A0FDF7E2FD00203C4991
:104440000870FCF757F908B1FDF71EFA94480068A8
:10445000FDF7F0F995E700002A2A2A2A2A2A2A2AB3
:104460002A2A2A2A2A2A2A2A2A2A2A2A2A2A2A2AAC
:104470002A2A2A2A2A2A2A2A2A2A0D0A0000000081
:104480004C414E38373230412045746865726E6554
:10449000742044656D6F0D0A000000004C414E38D9
:1044A000373230412042535020494E495420414E2A
:1044B0004420434F4D4649475552452053554343A9
:1044C0004553530D0A000000B1BEB5D84950BACDCE
:1044D000B6CBBFDA3A2025642E25642E25642E251E
:1044E000640D0A00D4B6B6CB4950BACDB6CBBFDA0C
:1044F0003A2025642E25642E25642E25643A2564F1
:104500000D0A00003C00002068000020636F6E6E02
:1045100065637420746F20746370207365727665B0
:10452000720D0A006000002025640D0A00000000E2
:1045300049000020B001002052616E6765203D20D7
:1045400025642C204F53203D2025642C20000000A2
:10455000434831203D202536642C20434832203DFD
:10456000202536642C20434833203D202536642CFA
:1045700020434834203D202536642C2000000000D4
:10458000434835203D202536642C20434836203DC5
:10459000202536642C20434837203D202536642CC6
:1045A00020434838203D202536640D0A00000000D5
:1045B00043483168696768203D2025642C204348C2
:1045C000316C6F77203D2025642C20434832686988
:1045D0006768203D2025642C204348326C6F77208B
:1045E0003D2025642C20000043483368696768201B
:1045F0003D2025642C204348336C6F77203D2025D7
:10460000642C2043483468696768203D2025642C69
:10461000204348346C6F77203D2025642C0D0A0020
:1046200043483568696768203D2025642C2043484D
:10463000356C6F77203D2025642C2043483668690F
:104640006768203D2025642C204348366C6F772016
:104650003D2025642C2000004348376869676820A6
:104660003D2025642C204348376C6F77203D202562
:10467000642C2043483868696768203D2025642CF5
:10468000204348386C6F77203D2025640D0A2000B8
:1046900058000020667265713D2025640D0A0000F7
:1046A00084000020F0B50B30154D20F007010024E8
:1046B000144A0FE003688B420BD38B4205D95E1A74
:1046C00043184768C3E9006700E04368136002C00D
:1046D00004E0021D10680028ECD12046002802D119
:1046E000286808B10020F0BD064A07481060074A54
:1046F000121A22F00702C0E9002401202860D7E73F
:10470000200100201C01002094B5002090B700205B
:1047100070B5054605B970BD00BF00BF00BF00BF42
:104720000C480068854203D30B480068854200D3DB
:10473000F1E7A5F1080400BF00BF00202071074881
:104740000068844201D205480460204600F07AFDEA
:1047500000BFE0E7AC000020B0000020B400002063
:1047600000BF00BF114921F00301114A1160114639
:1047700008684FF4205101800021418001711146E9
:10478000096801F520510B4A11600121126811716D
:104790004FF42051074A12681180064A126851806E
:1047A00003490968044A11607047000087530020DC
:1047B000AC000020B0000020B4000020F0B502469C
:1047C0000AB90020F0BDD01C20F0030082B20C2AF0
:1047D00000DA0C22B2F5205F01DD0020F2E72F485D
:1047E00000882F4E3688801B83B250E02C4800682A
:1047F000C1180879002847D10E8803F10800301A43
:10480000904241D30E8803F10800361A02F11400D9
:10481000864218D303F10800104485B2204800688E
:104820004419002020710888208063800D800120B9
:1048300008712088B0F5205F07D02088184E3668B0
:104840003044458001E0012008711448006881422D
:1048500011D1124E306803E00688114F3F68F019FD
:1048600006791EB10F4E3668B042F5D10B4E30605E
:1048700000BF00BF00BF00BF00BF00BF00BF00BF40
:1048800000BF01F108009DE705480068C35AC2F562
:1048900020509842AADC002094E70000B4000020D9
:1048A000AC000020B00000202DE9F04106460A4689
:1048B000D01C20F0030082B20C2A00DA0C22B2F5E0
:1048C000205F02DD0020BDE8F08100BF00BF3E4850
:1048D0000068864203D33D480068864201D33046D3
:1048E000F1E7A6F1080438480088201A85B220882C
:1048F000401B083887B200BF00BFBA4201DD00206C
:10490000E1E7BA4201D13046DDE72088DFF8B8C0E0
:10491000DCF800C000EB0C01087980BB088805F1C9
:10492000080C94441FFA8CF3DFF8A4C0DCF800C034
:104930008C4508D1DFF890C0DCF800C09C44DFF85B
:104940009080C8F800C0DFF880C0DCF800C00CEB35
:1049500003014FF0000C81F804C008804D802380D3
:10496000B1F800C0BCF5205F08D0B1F800C0DFF896
:104970005880D8F80080C444ACF8023022E0FFE749
:1049800002F11400B8421DD805F10800104483B2AA
:104990000D480068C1180E480068814201D20C48D9
:1049A000016000200871208808804D8023800888DD
:1049B000B0F5205F06D00888DFF80CC0DCF800C036
:1049C0006044438030467EE7AC000020B000002009
:1049D000B400002001B9704700BF00BF0A46044B75
:1049E00053F820301360024B43F8202000BFF2E759
:1049F000987B002010B5002001E0431C98B20928E4
:104A0000FBDB114B23F00301002019E000230F4CC6
:104A100044F8203000220CE00C4B53F820300B609F
:104A20000A4B43F820100A4B33F810301944531C3A
:104A30009AB2084B33F810309342EDDC431C98B225
:104A40000928E3DB10BD0000BF7B0020987B00201D
:104A50004486000856860008024600BF092A01DB8A
:104A60000020704700BF064850F8221031B1044BB7
:104A7000086843F8220000BF00BF00BF0846F0E707
:104A8000987B00202DE9F04704460D4616461F4648
:104A9000DDE909A9DDF8208000BF00BF00206060CB
:104AA000A060E06084F831006062E061C4F82080BA
:104AB0000E48007884F834000C480078401C0B49FC
:104AC0000870C4F810903B4632462946204600F054
:104AD00011F82046D04710B10020BDE8F087044807
:104AE00000682060024804602046F6E7C00000200D
:104AF000B80000202DE9F04106460F4614461D4639
:104B00003946304600F02CF82146304600F0A4F833
:104B10002946304600F01DF8BDE8F08101490860E3
:104B200070470000BC00002010B5044694F8310026
:104B300000F0010060B114F8310F20F00100207086
:104B400014F8310900F0200010B12046FDF7EEFF07
:104B500010BD09B9002200E00A68C2607047000079
:104B60002DE9F04107460C4654B320687968884225
:104B700001D1012000E0002010BB154806680BE0C1
:104B800030687968884206D1D6F80C80304600F04B
:104B900021FC464600E0F668002EF1D10D4805687C
:104BA0000CE055B1286840B128687968884204D182
:104BB0000CB9002000E020682860ED68002DF0D1DD
:104BC0000CB9002000E020687860BDE8F0810000AA
:104BD000D8000020D400002000B1C161704710B59A
:104BE000044694F8310000F0100060B194F83100F0
:104BF00020F0100084F8310000BFE06910B12046B9
:104C0000E169884700BF10BD10B5044694F8310033
:104C100000F01000F8B994F8310040F0100084F86A
:104C20003100606A10B12046FDF708FE94F83100AB
:104C300000F0010040B194F8310000F0200018B1FC
:104C4000211D2046FEF740FA00BFE06910B1204662
:104C5000E169884700BF10BD09B9002200E00A6879
:104C60008260704710B5044694F8310000F00100EE
:104C700090B914F8310F40F00100207014F8310998
:104C800000F0100040B194F8310000F0200018B19D
:104C9000211D2046FEF718FA10BD2DE9F05F83466E
:104CA0000F469046BBF1000F09D0BBF1010F08D0B1
:104CB000BBF1020F07D0BBF1030F08D105E0362688
:104CC0000AE0222608E00E2606E0002604E000BFE7
:104CD00000BF0020BDE8F09F00BFB8F1000F68D012
:104CE000B8F1010F74D0B8F1020F72D0B8F1030F10
:104CF00070D10820FFF7B0FE04460CB90020E9E7A8
:104D000084F80C800020206006F110002044C01CB4
:104D100020F00300606000BF00BF2781F01C20F07E
:104D20000300C0F5FA70B84201DD384604E0F01C1B
:104D300020F00300C0F5FA70608100BF00BF00BF23
:104D400000BF0120E081A2466089A7EB00092CE0AA
:104D50000820FFF781FE054625B9204600F075F9C9
:104D60000020B7E785F80C80002068732860CAF837
:104D7000005000BF00BFA5F808901FFA89F0B0F5F9
:104D8000FA7F02DA1FFA89F001E04FF4FA706881C5
:104D900005F11000686000BF00BF00BF00BF012028
:104DA000E8816889A9EB0009AA46B9F1000FCFDCB8
:104DB00035E006F1130121F00302F91C21F0030193
:104DC000114488B2FFF7FAFC044624B9002081E7B9
:104DD00011E011E01FE004F110003044C01C20F08D
:104DE00003006060278167810020206084F80C80C8
:104DF00000BF00BF13E000BF0720FFF72DFE0446F1
:104E00000CB9002066E70020606027816781206080
:104E100084F80C8003E000BF00BF00205AE700BF09
:104E20000120E08100206073204653E7F0B505467D
:104E30000C46DDE9056735B1012D06D0022D06D0FF
:104E4000032D08D105E0362109E0222107E00E21DB
:104E500005E0002103E000BF00BF0020F0BD00BF5F
:104E6000C81C20F003002044B84201DD0020F5E713
:104E7000002018602EB1C81C20F003003044586098
:104E800001E000205860022058731C815C811A7375
:104E90000120D8811846E1E710B5024600BF02B1F3
:104EA00001B910BD00BF104604E003890C892344FA
:104EB000038100680368002BF7D100BF00BF00BF6B
:104EC00000BF03890C8923440381016000BFE8E728
:104ED00030B505460C4621462846FFF7DDFF204643
:104EE00000F071F930BD0146002002E0421CD0B252
:104EF00009680029FAD170472DE9F04105460C46B2
:104F00000026002700BF25B11CB1288921898842CD
:104F100003DA6FF00D00BDE8F08100BF00BF6889C3
:104F2000801B6189C91B884204DB6089C01B1FFA92
:104F300080F803E06889801B1FFA80F86268D11945
:104F40006A6890194246FBF73BF906EB080086B207
:104F500007EB080087B200BF00BF00BF00BF608939
:104F6000B84201DC002724686889B04208D10026D5
:104F70002D6800BF1DB914B16FF00D00CBE700BF65
:104F800054B160892189884206D100BF206810B1E0
:104F90006FF00500BFE700BF55B1688929898842D5
:104FA00006D100BF286810B16FF00500B3E700BF5D
:104FB000002CB4D10020AEE72DE9F05F8046894691
:104FC00016461D464FF0000B00BFB8F1000F02D18E
:104FD0000020BDE8F09F00BF00BFB9F1000F01D174
:104FE0000020F6E700BF4FF0000AB8F1000F02D032
:104FF000B9F1000F01D10020EBE7444620E035B1C4
:105000006089A84203DC6089281A85B217E06089AC
:10501000401B87B2B74200DD37466268511909EB81
:105020000A003A46FBF7CCF80BEB07001FFA80FBAF
:105030000AEB07001FFA80FAF01B86B200252468ED
:105040000EB1002CDBD15846C3E72DE9F0470446EA
:1050500024B900BF00BF0020BDE8F08700BF00BF3B
:10506000002631E000BF00BFE089401E1FFA80F833
:10507000A4F80E80B8F1000F24D12768257B607B4F
:1050800000F0020038B1A14600BF00BF2046D9F8A9
:105090001010884712E0032D04D121460820FFF7A5
:1050A00099FC0BE0012D01D0022D04D121460720EF
:1050B000FFF790FC02E02046FFF72AFB701CC6B207
:1050C0003C4600E0002400BF002CCBD13046C3E7B3
:1050D00070B5024600BF00BF01B10AB9002070BD23
:1050E000002908DA484284B200BF5089A04201DAA0
:1050F0000120F4E700E08CB2137B55680BB1032B61
:105100000AD15068401A506002F110005668864279
:1051100015D255600120E2E7022B01D0012B0AD104
:10512000002906DA5089A04203DB5068401A50601B
:1051300005E00120D3E700BF00BF0120CFE7508981
:10514000084450811089084410810020C7E72DE9E8
:10515000F04106460F4600BF00BF00BF00BF3089C8
:10516000B84201DCBDE8F0813089A7EB00083D467C
:1051700034460AE06089281A85B200BF00BF208942
:1051800040442081246800BF00BF6089A842F1DB51
:10519000207B60B96089A84209D0A088001B284400
:1051A00081B22046FFF780FB044600BF00BF658147
:1051B00060892081206810B12068FFF746FF002039
:1051C000206000BFCEE710B1C189491CC181704782
:1051D0002DE9F04704460E469146C8464FF0000AB6
:1051E00000BF14B90020BDE8F08700BF00BF0EB9B2
:1051F0000020F8E700BF1CB116B12089484502DA4B
:105200006FF00D00EFE7254615E000BF00BF4746F1
:105210006889B84200DA6F8906EB0A013A46686885
:10522000FAF7CEFFA8EB07001FFA80F80AEB070099
:105230001FFA80FA2D68B8F1000FE6D100BF00BF59
:105240000020D0E730B500BF00BF00BF00BF00BFE7
:1052500000BF00BF00BF0388194C24681919884299
:1052600015D00B799BB9174B1B6899420FD0164B81
:105270001B688B4201D1144B18600B880380104BC4
:105280001B88C31A0C880E4D2D682C4463804388FC
:105290000B4C24681A19824211D013797BB90A4B3E
:1052A0001B68834201D1084B1A6003881380044BAA
:1052B0001B88D31A0488024D2D682C44638030BDAE
:1052C000AC000020B0000020B40000202DE9F04721
:1052D00005468A460027D5F8048098F809900026EC
:1052E000144804681FE0207C48451AD134B1206876
:1052F00020B1114920680968884212D1606980B1E3
:105300000E4B2A462146D4E905C0E04748B10025A6
:10531000012736B1E068F06006480068E0600548A3
:1053200004602646E4680FB9002CDCD13846BDE89D
:10533000F0870000C40000209800002094000020A6
:105340002DE9FC4704460E4600BF00BF207E0A2818
:1053500008D121461C4801F0A9FA21460220FFF796
:1053600039FB2FE0276DD4F82880D4F88850D4F882
:10537000109000BF2146154801F098FA0120144909
:10538000087000BF206F10B1206F02F042FAE06E8B
:1053900010B1E06E02F03DFA4EB1A08B618B231D7F
:1053A0002246CDE900104146384602F0E7F9214691
:1053B0000220FFF70FFB00BF1DB16FF00901484647
:1053C000A84700BFBDE8FC87DC000020D800002013
:1053D000E400002010B5044601212046FFF7B0FF8D
:1053E00010BD000070B506460220FFF735FB0446ED
:1053F0007CB900F021FF0220FFF72EFB04463CB9E8
:10540000304600F0EFFE0220FFF726FB044600BF07
:1054100000BF002C3AD094212046FAF7EAFE10345F
:10542000667241F2D060A4F856000020A4F858003B
:1054300040F66830A083E083002004F8070CFF20CA
:1054400004F8060C4FF40670E0840620A0860020C5
:10545000208606206086C01FA0840120A08700F05F
:10546000DBFF0546A5642564A563E564084800687C
:1054700060610848007860740020E0730648E066C8
:105480000648E067002084F88200103C204670BD8A
:10549000CC000020E60000200576000800DD6D004D
:1054A0000161704710B50446207E012803D0A07F1B
:1054B00040F01000A0770121204600F001F810BD57
:1054C0007CB504460E46002E5BD0207E042802D018
:1054D000207E072855D1606F20B9A08D40F6683135
:1054E00088424ED000BF00BFA08B618BCDE9001079
:1054F000231D2246A16A206D02F040F9204601F0EA
:10550000B5F900BF00BF5A480068A04205D158480D
:105510000068C0685649086018E055480068554959
:1055200008600EE053480068C068A04204D15149A9
:10553000E0680968C86008E04E480068C0684D49E6
:1055400008604C4800680028ECD100BF0020E060F3
:1055500000BF01204849087000BF207E04280AD1FE
:105560000A20207600BF45480068E0604348046098
:1055700002F08CFB03E021460220FFF72BFA00200B
:105580007CBD207E082868D2DFE800F004343F4F5D
:105590005767675F0025608B30B300BF38480068ED
:1055A000A04205D136480068C0683549086018E057
:1055B000334800682F4908600EE02E480068C06834
:1055C000A04204D12B49E0680968C86008E0294876
:1055D0000068C06827490860264800680028ECD1A8
:1055E00000BF0020E06000BF21460220FFF7F2F973
:1055F000002435E000252146224801F057F92146D4
:105600000320FFF7E7F900242AE0002500BF214628
:10561000174801F04BF901201749087000BF2146D7
:105620000220FFF7D7F900241AE0204602F024F9FF
:1056300005460DB90520207612E0204602F01CF93F
:1056400005460DB9052020760AE0204602F014F93F
:1056500005460DB90920207602E00025002400BF90
:1056600000BF1CB115B9204600F0E4FE284687E7CC
:10567000D8000020E0000020E4000020DC00002032
:10568000D0000020D40000202DE9F05F04460E4633
:105690009046994600BF207E18B16FF00800BDE823
:1056A000F09F00BF16B13068606002E06FF0050047
:1056B000F5E7A4F81C800CB1206868B9201DFEF73E
:1056C00075FC8346BBF1000F02D16FF00300E6E7E3
:1056D000DBF80400206000BFB4F81AA0608B38B972
:1056E00000F066FE6083608B10B96FF00100D6E7B2
:1056F00000F092FE0546002044F8280FA562681EBF
:105700002062606340F66830A080E0802068A0607E
:1057100040F6683020874FF40670E081E08931461A
:1057200000F023FAE0810120A084E08900EB8000F2
:105730004FF6FF7101EA4000E084C4F85890283C1D
:105740000221204600F028FA0746002F3CD1022013
:105750002076BAF1000F26D000BF1C480068A04296
:1057600005D11A480068C0681849086018E0174851
:105770000068174908600EE015480068C068A0423C
:1057800004D11349E0680968C86008E0104800685F
:10579000C0680F4908600E4800680028ECD100BFBF
:1057A0000020E06000BF00BF00BF0A480068E06062
:1057B0000848046002F06AFA00BF01200649087038
:1057C00000BF204600F036FE384668E7D0000020D3
:1057D000E0000020D8000020E40000202DE9F05F68
:1057E00007460E4691469A46DDF8288008F00100EB
:1057F00008B1042000E0002008F0020109B10C21EA
:1058000000E0002145180420FFF726F9040005D127
:105810003046FFF71AFC0020BDE8F09F84F80A80AC
:105820000020206066603089401B208114213046B2
:10583000FFF74EFC20B1204601F0DEFF0020EBE731
:1058400060684068E060788BFEF717FDE1680880CB
:10585000B88BFEF712FDE16848805046FEF700FD68
:10586000E1684860AB46E91705EB91718910491D65
:1058700049EA013188B2FEF700FDE1688881002025
:10588000E16848822046C7E708B500F08BFD0C4967
:1058900008600846006850B10A4800900A4B4FF46F
:1058A0007A72694606480068FFF7EEFE07E0044892
:1058B00001680220FFF78EF804A0FCF7A1FB08BDE9
:1058C00040000020C0A80105E95800080A0D206327
:1058D000616E206E6F7420637265617465207463FD
:1058E00070207063620000002DE9F04180460D4693
:1058F00016460024002E4AD10C20FEF75FFF044616
:1059000026480460002C3BD00120207065602448AC
:10591000FAF77AFC87B2032239460020FFF7BDF977
:10592000A060A068002836D01D48FAF76DFC87B249
:105930003A461B49A068FFF74BFC21462846FFF773
:10594000AFFD1849284601F059FE1749284601F0D5
:10595000B8FF01221549284600F0F0FF21462846ED
:1059600000F0CCF801201249087012A0FCF748FBA7
:105970000F48017813A0FCF743FB0020BDE8F0813D
:105980002146284600F024F84FF0FF30F6E7214684
:10599000284600F01DF83046F0E7000044000020E3
:1059A0008E0100203D5A00084D5B0008015A000896
:1059B0003C00002079696A696E676661736F6E6783
:1059C0000D0A0000666C61673D25640D0A00000049
:1059D00070B505460C460021284601F00FFE002157
:1059E000284601F06EFF00221146284600F0A6FF6F
:1059F00014B12046FEF78CFE2846FFF753FD70BD1C
:105A00002DE9F04105460F462C467CB1A06820B137
:105A10002146384600F072F806E02078032803D1CA
:105A200021463846FFF7D4FF002604E03846FFF74A
:105A3000D1FC6FF009063046BDE8F0812DE9F04752
:105A400081468A4614461F464FF0000800BF00BF3B
:105A50004D468CB903202870A86820B929465046C5
:105A6000FFF7B6FF06E02946504600F047F85046DB
:105A700000F0E0FC002635E027B12046FFF7E5FA0C
:105A80003E462FE02878012824D118480068401CA1
:105A9000164908602189504601F0CBFD6089FEF768
:105AA00001FE8046B8F1000F08D062894046616867
:105AB000FAF786FB41460EA0FCF7A2FA4046FDF736
:105AC00073FC2046FFF7C1FA29465046FFF780FFD6
:105AD000002607E02189504601F0ABFD2046FFF784
